{
  "contractName": "Connector",
  "abi": [
    {
      "inputs": [
        {
          "internalType": "string",
          "name": "_name",
          "type": "string"
        },
        {
          "internalType": "string",
          "name": "_symbol",
          "type": "string"
        }
      ],
      "stateMutability": "nonpayable",
      "type": "constructor"
    },
    {
      "anonymous": false,
      "inputs": [
        {
          "indexed": true,
          "internalType": "address",
          "name": "to",
          "type": "address"
        },
        {
          "indexed": true,
          "internalType": "address",
          "name": "from",
          "type": "address"
        },
        {
          "indexed": true,
          "internalType": "uint256",
          "name": "_tokenId",
          "type": "uint256"
        }
      ],
      "name": "Transfer",
      "type": "event"
    },
    {
      "inputs": [
        {
          "internalType": "address",
          "name": "_owner",
          "type": "address"
        }
      ],
      "name": "balanceOf",
      "outputs": [
        {
          "internalType": "uint256",
          "name": "",
          "type": "uint256"
        }
      ],
      "stateMutability": "view",
      "type": "function"
    },
    {
      "inputs": [],
      "name": "name",
      "outputs": [
        {
          "internalType": "string",
          "name": "",
          "type": "string"
        }
      ],
      "stateMutability": "view",
      "type": "function"
    },
    {
      "inputs": [
        {
          "internalType": "uint256",
          "name": "_owner",
          "type": "uint256"
        }
      ],
      "name": "ownerOf",
      "outputs": [
        {
          "internalType": "address",
          "name": "",
          "type": "address"
        }
      ],
      "stateMutability": "view",
      "type": "function"
    },
    {
      "inputs": [],
      "name": "symbol",
      "outputs": [
        {
          "internalType": "string",
          "name": "",
          "type": "string"
        }
      ],
      "stateMutability": "view",
      "type": "function"
    },
    {
      "inputs": [],
      "name": "totalSupply",
      "outputs": [
        {
          "internalType": "uint256",
          "name": "",
          "type": "uint256"
        }
      ],
      "stateMutability": "view",
      "type": "function"
    }
  ],
  "bytecode": "0x608060405234801561001057600080fd5b5060405161061138038061061183398101604081905261002f916101bf565b815182908290610046906000906020850190610064565b50805161005a906001906020840190610064565b505050505061025c565b82805461007090610222565b90600052602060002090601f01602090048101928261009257600085556100d8565b82601f106100ab57805160ff19168380011785556100d8565b828001600101855582156100d8579182015b828111156100d85782518255916020019190600101906100bd565b506100e49291506100e8565b5090565b5b808211156100e457600081556001016100e9565b634e487b7160e01b600052604160045260246000fd5b600082601f83011261012457600080fd5b81516001600160401b038082111561013e5761013e6100fd565b604051601f8301601f19908116603f01168101908282118183101715610166576101666100fd565b8160405283815260209250868385880101111561018257600080fd5b600091505b838210156101a45785820183015181830184015290820190610187565b838211156101b55760008385830101525b9695505050505050565b600080604083850312156101d257600080fd5b82516001600160401b03808211156101e957600080fd5b6101f586838701610113565b9350602085015191508082111561020b57600080fd5b5061021885828601610113565b9150509250929050565b600181811c9082168061023657607f821691505b60208210810361025657634e487b7160e01b600052602260045260246000fd5b50919050565b6103a68061026b6000396000f3fe608060405234801561001057600080fd5b50600436106100575760003560e01c806306fdde031461005c57806318160ddd1461007a5780636352211e1461009057806370a08231146100bb57806395d89b41146100ce575b600080fd5b6100646100d6565b6040516100719190610216565b60405180910390f35b610082610168565b604051908152602001610071565b6100a361009e36600461026b565b61017f565b6040516001600160a01b039091168152602001610071565b6100826100c9366004610284565b6101c3565b610064610207565b6060600080546100e5906102b4565b80601f0160208091040260200160405190810160405280929190818152602001828054610111906102b4565b801561015e5780601f106101335761010080835404028352916020019161015e565b820191906000526020600020905b81548152906001019060200180831161014157829003601f168201915b5050505050905090565b60045460009061017a906001906102ee565b905090565b6000818152600260205260408120546001600160a01b0316806101bd5760405162461bcd60e51b81526004016101b490610313565b60405180910390fd5b92915050565b60006001600160a01b0382166101eb5760405162461bcd60e51b81526004016101b490610313565b506001600160a01b031660009081526003602052604090205490565b6060600180546100e5906102b4565b600060208083528351808285015260005b8181101561024357858101830151858201604001528201610227565b81811115610255576000604083870101525b50601f01601f1916929092016040019392505050565b60006020828403121561027d57600080fd5b5035919050565b60006020828403121561029657600080fd5b81356001600160a01b03811681146102ad57600080fd5b9392505050565b600181811c908216806102c857607f821691505b6020821081036102e857634e487b7160e01b600052602260045260246000fd5b50919050565b60008282101561030e57634e487b7160e01b600052601160045260246000fd5b500390565b60208082526037908201527f4552433732313a20546865204f776e657220416464726573732069732030783060408201527f2e204f776e657220646f6573206e6f742065786973742e00000000000000000060608201526080019056fea2646970667358221220b5ae1559bfb69a6ad5322ec7810828ef42b2c0a4ad03d737f60b38b558754dc064736f6c634300080d0033",
  "immutableReferences": {},
  "source": "// // SPDX-License-Identifier: MIT\r\npragma solidity ^0.8.0;\r\n\r\nimport './ERC721Metadata.sol';\r\nimport \"./ERC721.sol\";\r\nimport \"./ERC721Enumerable.sol\";\r\n\r\ncontract Connector is ERC721Metadata, ERC721, ERC721Enumerable {\r\n    // This will carry metadata information of the NFT contract and will be used by the marketplace\r\n    constructor(string memory _name, string memory _symbol) ERC721Metadata(_name, _symbol) ERC721Enumerable() {\r\n        _name = _name;\r\n        _symbol= _symbol;\r\n    }\r\n}",
  "sourcePath": "D:\\Projects\\Block Chain\\Block-Chain-Learning\\nft-marketplace\\src\\contracts\\ERC721Connector.sol",
  "compiler": {
    "name": "solc",
    "version": "0.8.13+commit.abaa5c0e.Emscripten.clang"
  },
  "schemaVersion": "3.4.6",
  "updatedAt": "2022-04-06T22:38:16.767Z",
  "devdoc": {
    "kind": "dev",
    "methods": {
      "totalSupply()": {
        "returns": {
          "_0": "A count of valid NFTs tracked by this contract, where each one of  them has an assigned and queryable owner not equal to the zero address"
        }
      }
    },
    "version": 1
  },
  "userdoc": {
    "kind": "user",
    "methods": {
      "totalSupply()": {
        "notice": "Count NFTs tracked by this contract"
      }
    },
    "version": 1
  }
}