{
  "contractName": "Connector",
  "abi": [
    {
      "inputs": [
        {
          "internalType": "string",
          "name": "_name",
          "type": "string"
        },
        {
          "internalType": "string",
          "name": "_symbol",
          "type": "string"
        }
      ],
      "stateMutability": "nonpayable",
      "type": "constructor"
    },
    {
      "anonymous": false,
      "inputs": [
        {
          "indexed": true,
          "internalType": "address",
          "name": "to",
          "type": "address"
        },
        {
          "indexed": true,
          "internalType": "address",
          "name": "from",
          "type": "address"
        },
        {
          "indexed": true,
          "internalType": "uint256",
          "name": "_tokenId",
          "type": "uint256"
        }
      ],
      "name": "Transfer",
      "type": "event"
    },
    {
      "inputs": [
        {
          "internalType": "address",
          "name": "_owner",
          "type": "address"
        }
      ],
      "name": "balanceOf",
      "outputs": [
        {
          "internalType": "uint256",
          "name": "",
          "type": "uint256"
        }
      ],
      "stateMutability": "view",
      "type": "function"
    },
    {
      "inputs": [],
      "name": "name",
      "outputs": [
        {
          "internalType": "string",
          "name": "",
          "type": "string"
        }
      ],
      "stateMutability": "view",
      "type": "function"
    },
    {
      "inputs": [
        {
          "internalType": "uint256",
          "name": "_owner",
          "type": "uint256"
        }
      ],
      "name": "ownerOf",
      "outputs": [
        {
          "internalType": "address",
          "name": "",
          "type": "address"
        }
      ],
      "stateMutability": "view",
      "type": "function"
    },
    {
      "inputs": [],
      "name": "symbol",
      "outputs": [
        {
          "internalType": "string",
          "name": "",
          "type": "string"
        }
      ],
      "stateMutability": "view",
      "type": "function"
    },
    {
      "inputs": [
        {
          "internalType": "uint256",
          "name": "index",
          "type": "uint256"
        }
      ],
      "name": "tokenByIndex",
      "outputs": [
        {
          "internalType": "uint256",
          "name": "",
          "type": "uint256"
        }
      ],
      "stateMutability": "view",
      "type": "function"
    },
    {
      "inputs": [
        {
          "internalType": "address",
          "name": "owner",
          "type": "address"
        },
        {
          "internalType": "uint256",
          "name": "index",
          "type": "uint256"
        }
      ],
      "name": "tokenOwnerByIndex",
      "outputs": [
        {
          "internalType": "uint256",
          "name": "",
          "type": "uint256"
        }
      ],
      "stateMutability": "view",
      "type": "function"
    },
    {
      "inputs": [],
      "name": "totalSupply",
      "outputs": [
        {
          "internalType": "uint256",
          "name": "",
          "type": "uint256"
        }
      ],
      "stateMutability": "view",
      "type": "function"
    }
  ],
  "bytecode": "0x608060405234801561001057600080fd5b506040516107a23803806107a283398101604081905261002f916101bf565b815182908290610046906000906020850190610064565b50805161005a906001906020840190610064565b505050505061025c565b82805461007090610222565b90600052602060002090601f01602090048101928261009257600085556100d8565b82601f106100ab57805160ff19168380011785556100d8565b828001600101855582156100d8579182015b828111156100d85782518255916020019190600101906100bd565b506100e49291506100e8565b5090565b5b808211156100e457600081556001016100e9565b634e487b7160e01b600052604160045260246000fd5b600082601f83011261012457600080fd5b81516001600160401b038082111561013e5761013e6100fd565b604051601f8301601f19908116603f01168101908282118183101715610166576101666100fd565b8160405283815260209250868385880101111561018257600080fd5b600091505b838210156101a45785820183015181830184015290820190610187565b838211156101b55760008385830101525b9695505050505050565b600080604083850312156101d257600080fd5b82516001600160401b03808211156101e957600080fd5b6101f586838701610113565b9350602085015191508082111561020b57600080fd5b5061021885828601610113565b9150509250929050565b600181811c9082168061023657607f821691505b60208210810361025657634e487b7160e01b600052602260045260246000fd5b50919050565b6105378061026b6000396000f3fe608060405234801561001057600080fd5b506004361061007d5760003560e01c80636352211e1161005b5780636352211e146100c557806370a08231146100f057806395d89b4114610103578063a83328b31461010b57600080fd5b806306fdde031461008257806318160ddd146100a05780634f6ccce7146100b2575b600080fd5b61008a61011e565b604051610097919061037e565b60405180910390f35b6004545b604051908152602001610097565b6100a46100c03660046103d3565b6101b0565b6100d86100d33660046103d3565b610247565b6040516001600160a01b039091168152602001610097565b6100a46100fe366004610408565b610282565b61008a6102c6565b6100a461011936600461042a565b6102d5565b60606000805461012d90610454565b80601f016020809104026020016040519081016040528092919081815260200182805461015990610454565b80156101a65780601f1061017b576101008083540402835291602001916101a6565b820191906000526020600020905b81548152906001019060200180831161018957829003601f168201915b5050505050905090565b60006101bb60045490565b82106102225760405162461bcd60e51b815260206004820152602b60248201527f476c6f62616c20496e646578206973206c61676572207468616e20746865207460448201526a6f74616c20537570706c7960a81b60648201526084015b60405180910390fd5b600482815481106102355761023561048e565b90600052602060002001549050919050565b6000818152600260205260408120546001600160a01b03168061027c5760405162461bcd60e51b8152600401610219906104a4565b92915050565b60006001600160a01b0382166102aa5760405162461bcd60e51b8152600401610219906104a4565b506001600160a01b031660009081526003602052604090205490565b60606001805461012d90610454565b60006102e083610282565b82106103415760405162461bcd60e51b815260206004820152602a60248201527f4f776e657220696e646578206973206c61676572207468616e2074686520746f60448201526974616c20537570706c7960b01b6064820152608401610219565b6001600160a01b038316600090815260066020526040902080548390811061036b5761036b61048e565b9060005260206000200154905092915050565b600060208083528351808285015260005b818110156103ab5785810183015185820160400152820161038f565b818111156103bd576000604083870101525b50601f01601f1916929092016040019392505050565b6000602082840312156103e557600080fd5b5035919050565b80356001600160a01b038116811461040357600080fd5b919050565b60006020828403121561041a57600080fd5b610423826103ec565b9392505050565b6000806040838503121561043d57600080fd5b610446836103ec565b946020939093013593505050565b600181811c9082168061046857607f821691505b60208210810361048857634e487b7160e01b600052602260045260246000fd5b50919050565b634e487b7160e01b600052603260045260246000fd5b60208082526037908201527f4552433732313a20546865204f776e657220416464726573732069732030783060408201527f2e204f776e657220646f6573206e6f742065786973742e00000000000000000060608201526080019056fea26469706673582212203b057b93dff83d7274582c04eb9cd6076f0f4345cb39bd824c4bc8b865d82b4464736f6c634300080d0033",
  "immutableReferences": {},
  "source": "// SPDX-License-Identifier: MIT\r\npragma solidity ^0.8.0;\r\n\r\nimport './ERC721Metadata.sol';\r\nimport \"./ERC721Enumerable.sol\";\r\n\r\ncontract Connector is ERC721Metadata, ERC721Enumerable {\r\n    // This will carry metadata information of the NFT contract and will be used by the marketplace\r\n    constructor(string memory _name, string memory _symbol) ERC721Metadata(_name, _symbol) {\r\n        _name = _name;\r\n        _symbol= _symbol;\r\n    }\r\n}",
  "sourcePath": "D:\\Projects\\Block Chain\\Block-Chain-Learning\\nft-marketplace\\src\\contracts\\ERC721Connector.sol",
  "compiler": {
    "name": "solc",
    "version": "0.8.13+commit.abaa5c0e.Emscripten.clang"
  },
  "schemaVersion": "3.4.6",
  "updatedAt": "2022-04-07T19:48:09.546Z",
  "devdoc": {
    "kind": "dev",
    "methods": {},
    "version": 1
  },
  "userdoc": {
    "kind": "user",
    "methods": {},
    "version": 1
  }
}