{
  "contractName": "ERC721Enumerable",
  "abi": [
    {
      "anonymous": false,
      "inputs": [
        {
          "indexed": true,
          "internalType": "address",
          "name": "to",
          "type": "address"
        },
        {
          "indexed": true,
          "internalType": "address",
          "name": "from",
          "type": "address"
        },
        {
          "indexed": true,
          "internalType": "uint256",
          "name": "_tokenId",
          "type": "uint256"
        }
      ],
      "name": "Transfer",
      "type": "event"
    },
    {
      "inputs": [
        {
          "internalType": "address",
          "name": "_owner",
          "type": "address"
        }
      ],
      "name": "balanceOf",
      "outputs": [
        {
          "internalType": "uint256",
          "name": "",
          "type": "uint256"
        }
      ],
      "stateMutability": "view",
      "type": "function"
    },
    {
      "inputs": [
        {
          "internalType": "uint256",
          "name": "_owner",
          "type": "uint256"
        }
      ],
      "name": "ownerOf",
      "outputs": [
        {
          "internalType": "address",
          "name": "",
          "type": "address"
        }
      ],
      "stateMutability": "view",
      "type": "function"
    },
    {
      "inputs": [],
      "name": "totalSupply",
      "outputs": [
        {
          "internalType": "uint256",
          "name": "",
          "type": "uint256"
        }
      ],
      "stateMutability": "view",
      "type": "function"
    }
  ],
  "bytecode": "0x608060405234801561001057600080fd5b506101ff806100206000396000f3fe608060405234801561001057600080fd5b50600436106100415760003560e01c806318160ddd146100465780636352211e1461005d57806370a0823114610088575b600080fd5b6002545b6040519081526020015b60405180910390f35b61007061006b366004610123565b61009b565b6040516001600160a01b039091168152602001610054565b61004a61009636600461013c565b6100df565b6000818152602081905260408120546001600160a01b0316806100d95760405162461bcd60e51b81526004016100d09061016c565b60405180910390fd5b92915050565b60006001600160a01b0382166101075760405162461bcd60e51b81526004016100d09061016c565b506001600160a01b031660009081526001602052604090205490565b60006020828403121561013557600080fd5b5035919050565b60006020828403121561014e57600080fd5b81356001600160a01b038116811461016557600080fd5b9392505050565b60208082526037908201527f4552433732313a20546865204f776e657220416464726573732069732030783060408201527f2e204f776e657220646f6573206e6f742065786973742e00000000000000000060608201526080019056fea2646970667358221220f5534c6221c80c351117550fc637a94a404615695f56fc84e829be90bf21058c64736f6c634300080d0033",
  "immutableReferences": {},
  "source": "// SPDX-License-Identifier: MIT\r\npragma solidity ^0.8.0;\r\n\r\nimport \"./ERC721.sol\";\r\n\r\ncontract ERC721Enumerable is ERC721 {\r\n    uint256[] private _allTokens;\r\n\r\n// mapping from tokenld to position in _allTokens array\r\n// mapping of owner to list of all owner token ids\r\n// mapping from token ID index of the owner tokens list I\r\n\r\n    // with mapping, place tokenID in _allTokens\r\n    mapping(uint256 => uint256) private _allTokensIndex;\r\n\r\n    // with mapping, place Owner ID in the list of all Owner's IDs\r\n    mapping(uint256 => uint256[]) private _allOwnerIndex;\r\n\r\n    // with mapping, place Token ID in the ownerTokenList\r\n    mapping(uint256 => uint256) private _ownerTokenList;\r\n\r\n    function totalSupply() external view returns (uint256) {\r\n        return _allTokens.length;\r\n    }\r\n\r\n    function _mint(address to, uint256 _tokenID) internal override {\r\n        super._mint(to, _tokenID);\r\n        _allTokens.push(_tokenID);\r\n    }\r\n\r\n}\r\n\r\n\r\n\r\n\r\n\r\n\r\n\r\n\r\n\r\n\r\n\r\n\r\n\r\n\r\n\r\n\r\n\r\n\r\n\r\n\r\n\r\n// uint256[] private _allTokens;\r\n\r\n// // mapping from tokenld to position in _allTokens array\r\n// mapping (uint256 => uint256) private _allTokensIndex;\r\n\r\n// // mapping of owner to list of all owner token ids\r\n// mapping (address => uint256[]) private _ownedTokens;\r\n\r\n// // mapping from token ID index of the owner tokens list I\r\n// mapping (uint256 => uint256) private _ownedTokenIndex;\r\n\r\n\r\n// function totalSupply() external view returns (uint256) {\r\n//     return _allTokens.length;\r\n// }\r\n\r\n// function _addTokensToTotalSupply(uint256 tokenID) private {\r\n//     _allTokens.push(_allTokensIndex[tokenID]);\r\n// }",
  "sourcePath": "D:\\Projects\\Block Chain\\Block-Chain-Learning\\nft-marketplace\\src\\contracts\\ERC721Enumerable.sol",
  "compiler": {
    "name": "solc",
    "version": "0.8.13+commit.abaa5c0e.Emscripten.clang"
  },
  "schemaVersion": "3.4.6",
  "updatedAt": "2022-04-07T01:04:29.585Z",
  "devdoc": {
    "kind": "dev",
    "methods": {},
    "version": 1
  },
  "userdoc": {
    "kind": "user",
    "methods": {},
    "version": 1
  }
}