{
  "contractName": "ERC721Enumerable",
  "abi": [
    {
      "anonymous": false,
      "inputs": [
        {
          "indexed": true,
          "internalType": "address",
          "name": "to",
          "type": "address"
        },
        {
          "indexed": true,
          "internalType": "address",
          "name": "from",
          "type": "address"
        },
        {
          "indexed": true,
          "internalType": "uint256",
          "name": "_tokenId",
          "type": "uint256"
        }
      ],
      "name": "Transfer",
      "type": "event"
    },
    {
      "inputs": [
        {
          "internalType": "address",
          "name": "_owner",
          "type": "address"
        }
      ],
      "name": "balanceOf",
      "outputs": [
        {
          "internalType": "uint256",
          "name": "",
          "type": "uint256"
        }
      ],
      "stateMutability": "view",
      "type": "function"
    },
    {
      "inputs": [
        {
          "internalType": "uint256",
          "name": "_owner",
          "type": "uint256"
        }
      ],
      "name": "ownerOf",
      "outputs": [
        {
          "internalType": "address",
          "name": "",
          "type": "address"
        }
      ],
      "stateMutability": "view",
      "type": "function"
    },
    {
      "inputs": [],
      "name": "totalSupply",
      "outputs": [
        {
          "internalType": "uint256",
          "name": "",
          "type": "uint256"
        }
      ],
      "stateMutability": "view",
      "type": "function"
    },
    {
      "inputs": [
        {
          "internalType": "uint256",
          "name": "index",
          "type": "uint256"
        }
      ],
      "name": "tokenByIndex",
      "outputs": [
        {
          "internalType": "uint256",
          "name": "",
          "type": "uint256"
        }
      ],
      "stateMutability": "view",
      "type": "function"
    },
    {
      "inputs": [
        {
          "internalType": "address",
          "name": "owner",
          "type": "address"
        },
        {
          "internalType": "uint256",
          "name": "index",
          "type": "uint256"
        }
      ],
      "name": "tokenOwnerByIndex",
      "outputs": [
        {
          "internalType": "uint256",
          "name": "",
          "type": "uint256"
        }
      ],
      "stateMutability": "view",
      "type": "function"
    }
  ],
  "bytecode": "0x608060405234801561001057600080fd5b506103c0806100206000396000f3fe608060405234801561001057600080fd5b50600436106100575760003560e01c806318160ddd1461005c5780634f6ccce7146100735780636352211e1461008657806370a08231146100b1578063a83328b3146100c4575b600080fd5b6002545b6040519081526020015b60405180910390f35b610060610081366004610296565b6100d7565b610099610094366004610296565b61016e565b6040516001600160a01b03909116815260200161006a565b6100606100bf3660046102cb565b6101a9565b6100606100d23660046102ed565b6101ed565b60006100e260025490565b82106101495760405162461bcd60e51b815260206004820152602b60248201527f476c6f62616c20496e646578206973206c61676572207468616e20746865207460448201526a6f74616c20537570706c7960a81b60648201526084015b60405180910390fd5b6002828154811061015c5761015c610317565b90600052602060002001549050919050565b6000818152602081905260408120546001600160a01b0316806101a35760405162461bcd60e51b81526004016101409061032d565b92915050565b60006001600160a01b0382166101d15760405162461bcd60e51b81526004016101409061032d565b506001600160a01b031660009081526001602052604090205490565b60006101f8836101a9565b82106102595760405162461bcd60e51b815260206004820152602a60248201527f4f776e657220696e646578206973206c61676572207468616e2074686520746f60448201526974616c20537570706c7960b01b6064820152608401610140565b6001600160a01b038316600090815260046020526040902080548390811061028357610283610317565b9060005260206000200154905092915050565b6000602082840312156102a857600080fd5b5035919050565b80356001600160a01b03811681146102c657600080fd5b919050565b6000602082840312156102dd57600080fd5b6102e6826102af565b9392505050565b6000806040838503121561030057600080fd5b610309836102af565b946020939093013593505050565b634e487b7160e01b600052603260045260246000fd5b60208082526037908201527f4552433732313a20546865204f776e657220416464726573732069732030783060408201527f2e204f776e657220646f6573206e6f742065786973742e00000000000000000060608201526080019056fea264697066735822122045227b4655927499f956825efc6ee9e6290950e3ff65c22a94aad225afc9809d64736f6c634300080d0033",
  "immutableReferences": {},
  "source": "// SPDX-License-Identifier: MIT\r\npragma solidity ^0.8.0;\r\n\r\nimport \"./ERC721.sol\";\r\n\r\ncontract ERC721Enumerable is ERC721 {\r\n    uint256[] private _allTokens;\r\n\r\n// mapping from tokenld to position in _allTokens array\r\n// mapping of owner to list of all owner token ids\r\n// mapping from token ID index of the owner tokens list I\r\n\r\n    // with mapping, place tokenID in _allTokens\r\n    mapping(uint256 => uint256) private _allTokensIndex;\r\n\r\n    // with mapping, place Owner owner address in the list of all Owner's IDs\r\n    mapping(address => uint256[]) private _ownedTokens;\r\n\r\n    // with mapping, place Token ID in the ownerTokenList\r\n    mapping(uint256 => uint256) private _ownedTokensIndex;\r\n\r\n    function totalSupply() public view returns (uint256) {\r\n        return _allTokens.length;\r\n    }\r\n\r\n    function _mint(address to, uint256 _tokenID) internal override {\r\n        super._mint(to, _tokenID);\r\n        _allTokens.push(_tokenID);\r\n\r\n        _addTokensToAllTokenEnumeration(_tokenID);\r\n        _addTokenToOwnerEnumeration(to, _tokenID);\r\n    }\r\n\r\n    function _addTokensToAllTokenEnumeration(uint256 tokenID) private {\r\n        // gets length, example:\r\n        // No value == 0 length\r\n        // * Makes token index 0\r\n        _allTokensIndex[tokenID] = _allTokens.length;\r\n\r\n        // adds a value in the _allTokens\r\n        _allTokens.push(tokenID);\r\n\r\n        // now when this repeats.\r\n        // * _allTokens.length will give index of 1.\r\n        // * while when a new value gets push, the new index would be 2.\r\n    }\r\n\r\n    function _addTokenToOwnerEnumeration(address to, uint256 tokenID) private {\r\n        // 1. ownedTokensIndex tokenld set to address of ownedTokens position\r\n        _ownedTokensIndex[tokenID] = _ownedTokens[to].length;\r\n        \r\n        // 2. add address and token id to the _ownedTokens \r\n        _ownedTokens[to].push(tokenID);\r\n    }\r\n\r\n    // Gives the amount of tokens\r\n    function tokenByIndex(uint256 index) public view returns(uint256){\r\n        require(index < totalSupply(), 'Global Index is lager than the total Supply');\r\n        return _allTokens[index];\r\n    }\r\n\r\n    // Gives the amount of by Owners \r\n    function tokenOwnerByIndex(address owner, uint256 index) public view returns(uint256){\r\n        require(index < balanceOf(owner), 'Owner index is lager than the total Supply');\r\n        return _ownedTokens[owner][index];\r\n    }\r\n}\r\n\r\n\r\n\r\n\r\n\r\n\r\n\r\n\r\n\r\n\r\n\r\n\r\n\r\n\r\n\r\n\r\n\r\n\r\n\r\n\r\n\r\n// uint256[] private _allTokens;\r\n\r\n// // mapping from tokenld to position in _allTokens array\r\n// mapping (uint256 => uint256) private _allTokensIndex;\r\n\r\n// // mapping of owner to list of all owner token ids\r\n// mapping (address => uint256[]) private _ownedTokens;\r\n\r\n// // mapping from token ID index of the owner tokens list I\r\n// mapping (uint256 => uint256) private _ownedTokenIndex;\r\n\r\n\r\n// function totalSupply() external view returns (uint256) {\r\n//     return _allTokens.length;\r\n// }\r\n\r\n// function _addTokensToTotalSupply(uint256 tokenID) private {\r\n//     _allTokens.push(_allTokensIndex[tokenID]);\r\n// }",
  "sourcePath": "D:\\Projects\\Block Chain\\Block-Chain-Learning\\nft-marketplace\\src\\contracts\\ERC721Enumerable.sol",
  "compiler": {
    "name": "solc",
    "version": "0.8.13+commit.abaa5c0e.Emscripten.clang"
  },
  "schemaVersion": "3.4.6",
  "updatedAt": "2022-04-07T19:48:09.554Z",
  "devdoc": {
    "kind": "dev",
    "methods": {},
    "version": 1
  },
  "userdoc": {
    "kind": "user",
    "methods": {},
    "version": 1
  }
}