{
  "contractName": "ERC721Enumerable",
  "abi": [
    {
      "inputs": [],
      "stateMutability": "nonpayable",
      "type": "constructor"
    },
    {
      "anonymous": false,
      "inputs": [
        {
          "indexed": true,
          "internalType": "address",
          "name": "_owner",
          "type": "address"
        },
        {
          "indexed": true,
          "internalType": "address",
          "name": "_approved",
          "type": "address"
        },
        {
          "indexed": true,
          "internalType": "uint256",
          "name": "_tokenId",
          "type": "uint256"
        }
      ],
      "name": "Approval",
      "type": "event"
    },
    {
      "anonymous": false,
      "inputs": [
        {
          "indexed": true,
          "internalType": "address",
          "name": "_from",
          "type": "address"
        },
        {
          "indexed": true,
          "internalType": "address",
          "name": "_to",
          "type": "address"
        },
        {
          "indexed": true,
          "internalType": "uint256",
          "name": "_tokenId",
          "type": "uint256"
        }
      ],
      "name": "Transfer",
      "type": "event"
    },
    {
      "inputs": [
        {
          "internalType": "address",
          "name": "_to",
          "type": "address"
        },
        {
          "internalType": "uint256",
          "name": "tokenId",
          "type": "uint256"
        }
      ],
      "name": "approve",
      "outputs": [],
      "stateMutability": "nonpayable",
      "type": "function"
    },
    {
      "inputs": [
        {
          "internalType": "address",
          "name": "_owner",
          "type": "address"
        }
      ],
      "name": "balanceOf",
      "outputs": [
        {
          "internalType": "uint256",
          "name": "",
          "type": "uint256"
        }
      ],
      "stateMutability": "view",
      "type": "function"
    },
    {
      "inputs": [
        {
          "internalType": "uint256",
          "name": "_tokenId",
          "type": "uint256"
        }
      ],
      "name": "ownerOf",
      "outputs": [
        {
          "internalType": "address",
          "name": "",
          "type": "address"
        }
      ],
      "stateMutability": "view",
      "type": "function"
    },
    {
      "inputs": [
        {
          "internalType": "bytes4",
          "name": "interfaceID",
          "type": "bytes4"
        }
      ],
      "name": "supportsInterface",
      "outputs": [
        {
          "internalType": "bool",
          "name": "",
          "type": "bool"
        }
      ],
      "stateMutability": "view",
      "type": "function"
    },
    {
      "inputs": [
        {
          "internalType": "address",
          "name": "_from",
          "type": "address"
        },
        {
          "internalType": "address",
          "name": "_to",
          "type": "address"
        },
        {
          "internalType": "uint256",
          "name": "_tokenId",
          "type": "uint256"
        }
      ],
      "name": "transferFrom",
      "outputs": [],
      "stateMutability": "nonpayable",
      "type": "function"
    },
    {
      "inputs": [
        {
          "internalType": "uint256",
          "name": "index",
          "type": "uint256"
        }
      ],
      "name": "tokenByIndex",
      "outputs": [
        {
          "internalType": "uint256",
          "name": "",
          "type": "uint256"
        }
      ],
      "stateMutability": "view",
      "type": "function"
    },
    {
      "inputs": [
        {
          "internalType": "address",
          "name": "owner",
          "type": "address"
        },
        {
          "internalType": "uint256",
          "name": "index",
          "type": "uint256"
        }
      ],
      "name": "tokenOfOwnerByIndex",
      "outputs": [
        {
          "internalType": "uint256",
          "name": "",
          "type": "uint256"
        }
      ],
      "stateMutability": "view",
      "type": "function"
    },
    {
      "inputs": [],
      "name": "totalSupply",
      "outputs": [
        {
          "internalType": "uint256",
          "name": "",
          "type": "uint256"
        }
      ],
      "stateMutability": "view",
      "type": "function"
    }
  ],
  "bytecode": "0x608060405234801561001057600080fd5b5061003a7f01ffc9a7a5cef8baa21ed3c5c0d7e23accb804b619e9333b597f47a0d84076e2610091565b6100637f92d8a794d910422f7549620ed7a8f75c2c42d18032da05c61ed89586344e965e610091565b61008c7f2aa3f4710f58b303977da296b62cadae054c8971d883298d8ed6c6c0565c13c1610091565b610114565b6001600160e01b031980821690036100ef5760405162461bcd60e51b815260206004820152601960248201527f496e76616c696420696e74657266616365207265717565737400000000000000604482015260640160405180910390fd5b6001600160e01b0319166000908152602081905260409020805460ff19166001179055565b610848806101236000396000f3fe608060405234801561001057600080fd5b50600436106100885760003560e01c80632f745c591161005b5780632f745c59146101095780634f6ccce71461011c5780636352211e1461012f57806370a082311461015a57600080fd5b806301ffc9a71461008d578063095ea7b3146100cf57806318160ddd146100e457806323b872dd146100f6575b600080fd5b6100ba61009b36600461068e565b6001600160e01b03191660009081526020819052604090205460ff1690565b60405190151581526020015b60405180910390f35b6100e26100dd3660046106db565b61016d565b005b6004545b6040519081526020016100c6565b6100e2610104366004610705565b6102b3565b6100e86101173660046106db565b6102d6565b6100e861012a366004610741565b61036c565b61014261013d366004610741565b6103ea565b6040516001600160a01b0390911681526020016100c6565b6100e861016836600461075a565b610425565b6000610178826103ea565b9050806001600160a01b0316836001600160a01b0316036101ea5760405162461bcd60e51b815260206004820152602160248201527f4572726f72202d20617070726f76616c20746f2063757272656e74206f776e656044820152603960f91b60648201526084015b60405180910390fd5b336001600160a01b038216146102575760405162461bcd60e51b815260206004820152602c60248201527f43757272656e742063616c6c6572206973206e6f7420746865206f776e65722060448201526b37b3103a3432903a37b5b2b760a11b60648201526084016101e1565b60008281526003602052604080822080546001600160a01b0319166001600160a01b0387811691821790925591518593918516917f8c5be1e5ebec7d5bd14f71427d1e84f3dd0314c0f7b2291e5b200ac8c7c3b92591a4505050565b6102bd3382610469565b6102c657600080fd5b6102d18383836104e6565b505050565b60006102e183610425565b821061032f5760405162461bcd60e51b815260206004820152601d60248201527f6f776e657220696e646578206973206f7574206f6620626f756e64732100000060448201526064016101e1565b6001600160a01b038316600090815260066020526040902080548390811061035957610359610775565b9060005260206000200154905092915050565b600061037760045490565b82106103c55760405162461bcd60e51b815260206004820152601e60248201527f676c6f62616c20696e646578206973206f7574206f6620626f756e647321000060448201526064016101e1565b600482815481106103d8576103d8610775565b90600052602060002001549050919050565b6000818152600160205260408120546001600160a01b03168061041f5760405162461bcd60e51b81526004016101e19061078b565b92915050565b60006001600160a01b03821661044d5760405162461bcd60e51b81526004016101e19061078b565b506001600160a01b031660009081526002602052604090205490565b6000818152600160205260408120546001600160a01b03166104c45760405162461bcd60e51b81526020600482015260146024820152731d1bdad95b88191bd95cc81b9bdd08195e1a5cdd60621b60448201526064016101e1565b60006104cf836103ea565b6001600160a01b0385811691161491505092915050565b6001600160a01b0382166105505760405162461bcd60e51b815260206004820152602b60248201527f4572726f72202d20455243373231205472616e7366657220746f20746865207a60448201526a65726f206164647265737360a81b60648201526084016101e1565b826001600160a01b0316610563826103ea565b6001600160a01b0316146105d65760405162461bcd60e51b815260206004820152603460248201527f547279696e6720746f207472616e73666572206120746f6b656e20746865206160448201527364647265737320646f6573206e6f74206f776e2160601b60648201526084016101e1565b6001600160a01b03831660009081526002602052604081208054600192906105ff9084906107e3565b90915550506001600160a01b038216600090815260026020526040812080546001929061062d9084906107fa565b909155505060008181526001602052604080822080546001600160a01b0319166001600160a01b0386811691821790925591518493918716917fddf252ad1be2c89b69c2b068fc378daa952ba7f163c4a11628f55a4df523b3ef91a4505050565b6000602082840312156106a057600080fd5b81356001600160e01b0319811681146106b857600080fd5b9392505050565b80356001600160a01b03811681146106d657600080fd5b919050565b600080604083850312156106ee57600080fd5b6106f7836106bf565b946020939093013593505050565b60008060006060848603121561071a57600080fd5b610723846106bf565b9250610731602085016106bf565b9150604084013590509250925092565b60006020828403121561075357600080fd5b5035919050565b60006020828403121561076c57600080fd5b6106b8826106bf565b634e487b7160e01b600052603260045260246000fd5b60208082526022908201527f6f776e657220717565727920666f72206e6f6e2d6578697374656e7420746f6b60408201526132b760f11b606082015260800190565b634e487b7160e01b600052601160045260246000fd5b6000828210156107f5576107f56107cd565b500390565b6000821982111561080d5761080d6107cd565b50019056fea2646970667358221220c513ad118a351c9973a790f0623abba1a412a0b9300013400e6422ff4b42fc3b64736f6c634300080d0033",
  "immutableReferences": {},
  "source": "// SPDX-License-Identifier: MIT\npragma solidity ^0.8.0;\n\nimport './ERC721.sol';\nimport './interfaces/IERC721Enumerable.sol';\n\ncontract ERC721Enumerable is IERC721Enumerable, ERC721 {\n\n    uint256[] private _allTokens;\n\n    // mapping from tokenId to position in _allTokens array\n        mapping(uint256 => uint256) private _allTokensIndex;\n\n    // mapping of owner to list of all owner token ids\n        mapping(address => uint256[]) private _ownedTokens;\n\n    // mapping from token ID to index of the owner tokens list \n        mapping(uint256 => uint256) private _ownedTokensIndex;\n\n    \n    constructor() {\n        _registerInterface(bytes4(keccak256('totalSupply(bytes4)')^\n        keccak256('tokenByIndex(bytes4)')^keccak256('tokenOfOwnerByIndex(bytes4)')));\n    }\n\n    function _mint(address to, uint256 tokenId) internal override(ERC721) {\n        super._mint(to, tokenId);\n        // 2 things! A. add tokens to the owner\n        // B. all tokens to our totalsuppy - to allTokens\n        _addTokensToAllTokenEnumeration(tokenId); \n        _addTokensToOwnerEnumeration(to, tokenId);\n    }\n\n    // add tokens to the _alltokens array and set the position of the tokens indexes\n    function _addTokensToAllTokenEnumeration(uint256 tokenId) private {\n        _allTokensIndex[tokenId] = _allTokens.length;\n        _allTokens.push(tokenId); \n    }\n\n    function _addTokensToOwnerEnumeration(address to, uint256 tokenId) private {\n        // EXERCISE - CHALLENGE - DO THESE THREE THINGS:\n        // 1. add address and token id to the _ownedTokens\n        // 2. ownedTokensIndex tokenId set to address of \n        // ownedTokens position\n        // 3. we want to execute the function with minting\n        _ownedTokensIndex[tokenId] = _ownedTokens[to].length;\n        _ownedTokens[to].push(tokenId);   \n    }\n\n    // two functions - one that returns tokenByIndex and \n    // another one that returns tokenOfOwnerByIndex\n    function tokenByIndex(uint256 index) public override view returns(uint256) {\n        // make sure that the index is not out of bounds of the total supply \n        require(index < totalSupply(), 'global index is out of bounds!');\n        return _allTokens[index];\n    }\n\n    function tokenOfOwnerByIndex(address owner, uint index) public override view returns(uint256) {\n        require(index < balanceOf(owner),'owner index is out of bounds!');\n        return _ownedTokens[owner][index];  \n    }\n\n    // return the total supply of the _allTokens array\n    function totalSupply() public override view returns(uint256) {\n        return _allTokens.length;\n    }\n\n}",
  "sourcePath": "D:\\Projects\\Block Chain\\Block-Chain-Learning\\nft-marketplace\\src\\contracts\\ERC721Enumerable.sol",
  "compiler": {
    "name": "solc",
    "version": "0.8.13+commit.abaa5c0e.Emscripten.clang"
  },
  "schemaVersion": "3.4.6",
  "updatedAt": "2022-04-15T03:55:44.571Z",
  "devdoc": {
    "kind": "dev",
    "methods": {
      "ownerOf(uint256)": {
        "details": "NFTs assigned to zero address are considered invalid, and queries  about them do throw.",
        "params": {
          "_tokenId": "The identifier for an NFT"
        },
        "returns": {
          "_0": "The address of the owner of the NFT"
        }
      },
      "supportsInterface(bytes4)": {
        "details": "Interface identification is specified in ERC-165. This function  uses less than 30,000 gas.",
        "params": {
          "interfaceID": "The interface identifier, as specified in ERC-165"
        },
        "returns": {
          "_0": "`true` if the contract implements `interfaceID` and  `interfaceID` is not 0xffffffff, `false` otherwise"
        }
      }
    },
    "version": 1
  },
  "userdoc": {
    "kind": "user",
    "methods": {
      "ownerOf(uint256)": {
        "notice": "Find the owner of an NFT"
      },
      "supportsInterface(bytes4)": {
        "notice": "Query if a contract implements an interface"
      }
    },
    "version": 1
  }
}