{
  "contractName": "KryptoBirdz",
  "abi": [
    {
      "inputs": [],
      "stateMutability": "nonpayable",
      "type": "constructor"
    },
    {
      "anonymous": false,
      "inputs": [
        {
          "indexed": true,
          "internalType": "address",
          "name": "to",
          "type": "address"
        },
        {
          "indexed": true,
          "internalType": "address",
          "name": "from",
          "type": "address"
        },
        {
          "indexed": true,
          "internalType": "uint256",
          "name": "_tokenId",
          "type": "uint256"
        }
      ],
      "name": "Transfer",
      "type": "event"
    },
    {
      "inputs": [
        {
          "internalType": "address",
          "name": "_owner",
          "type": "address"
        }
      ],
      "name": "balanceOf",
      "outputs": [
        {
          "internalType": "uint256",
          "name": "",
          "type": "uint256"
        }
      ],
      "stateMutability": "view",
      "type": "function",
      "constant": true
    },
    {
      "inputs": [
        {
          "internalType": "uint256",
          "name": "",
          "type": "uint256"
        }
      ],
      "name": "kryptoBirdz",
      "outputs": [
        {
          "internalType": "string",
          "name": "",
          "type": "string"
        }
      ],
      "stateMutability": "view",
      "type": "function",
      "constant": true
    },
    {
      "inputs": [],
      "name": "name",
      "outputs": [
        {
          "internalType": "string",
          "name": "",
          "type": "string"
        }
      ],
      "stateMutability": "view",
      "type": "function",
      "constant": true
    },
    {
      "inputs": [
        {
          "internalType": "uint256",
          "name": "_owner",
          "type": "uint256"
        }
      ],
      "name": "ownerOf",
      "outputs": [
        {
          "internalType": "address",
          "name": "",
          "type": "address"
        }
      ],
      "stateMutability": "view",
      "type": "function",
      "constant": true
    },
    {
      "inputs": [],
      "name": "symbol",
      "outputs": [
        {
          "internalType": "string",
          "name": "",
          "type": "string"
        }
      ],
      "stateMutability": "view",
      "type": "function",
      "constant": true
    },
    {
      "inputs": [],
      "name": "totalSupply",
      "outputs": [
        {
          "internalType": "uint256",
          "name": "",
          "type": "uint256"
        }
      ],
      "stateMutability": "view",
      "type": "function",
      "constant": true
    },
    {
      "inputs": [
        {
          "internalType": "string",
          "name": "_kryptoBird",
          "type": "string"
        }
      ],
      "name": "mint",
      "outputs": [],
      "stateMutability": "nonpayable",
      "type": "function"
    }
  ],
  "bytecode": "0x60c0604052600b60808190526a25b93cb83a37a134b9323d60a91b60a09081526200002e9160079190620001cd565b506040805180820190915260068082526525a134b9323d60d11b60209092019182526200005e91600891620001cd565b503480156200006c57600080fd5b50600780546200007c9062000273565b80601f0160208091040260200160405190810160405280929190818152602001828054620000aa9062000273565b8015620000fb5780601f10620000cf57610100808354040283529160200191620000fb565b820191906000526020600020905b815481529060010190602001808311620000dd57829003601f168201915b5050505050600880546200010f9062000273565b80601f01602080910402602001604051908101604052809291908181526020018280546200013d9062000273565b80156200018e5780601f1062000162576101008083540402835291602001916200018e565b820191906000526020600020905b8154815290600101906020018083116200017057829003601f168201915b50508451859350849250620001ac91506000906020850190620001cd565b508051620001c2906001906020840190620001cd565b5050505050620002af565b828054620001db9062000273565b90600052602060002090601f016020900481019282620001ff57600085556200024a565b82601f106200021a57805160ff19168380011785556200024a565b828001600101855582156200024a579182015b828111156200024a5782518255916020019190600101906200022d565b50620002589291506200025c565b5090565b5b808211156200025857600081556001016200025d565b600181811c908216806200028857607f821691505b602082108103620002a957634e487b7160e01b600052602260045260246000fd5b50919050565b6108e680620002bf6000396000f3fe608060405234801561001057600080fd5b506004361061007d5760003560e01c806370a082311161005b57806370a08231146100e157806393ab6e56146100f457806395d89b4114610107578063d85d3d271461010f57600080fd5b806306fdde031461008257806318160ddd146100a05780636352211e146100b6575b600080fd5b61008a610124565b6040516100979190610674565b60405180910390f35b6100a86101b6565b604051908152602001610097565b6100c96100c43660046106a7565b6101cd565b6040516001600160a01b039091168152602001610097565b6100a86100ef3660046106c0565b610211565b61008a6101023660046106a7565b610255565b61008a610301565b61012261011d366004610706565b610310565b005b606060008054610133906107b7565b80601f016020809104026020016040519081016040528092919081815260200182805461015f906107b7565b80156101ac5780601f10610181576101008083540402835291602001916101ac565b820191906000526020600020905b81548152906001019060200180831161018f57829003601f168201915b5050505050905090565b6004546000906101c890600190610807565b905090565b6000818152600260205260408120546001600160a01b03168061020b5760405162461bcd60e51b81526004016102029061081e565b60405180910390fd5b92915050565b60006001600160a01b0382166102395760405162461bcd60e51b81526004016102029061081e565b506001600160a01b031660009081526003602052604090205490565b6005818154811061026557600080fd5b906000526020600020016000915090508054610280906107b7565b80601f01602080910402602001604051908101604052809291908181526020018280546102ac906107b7565b80156102f95780601f106102ce576101008083540402835291602001916102f9565b820191906000526020600020905b8154815290600101906020018083116102dc57829003601f168201915b505050505081565b606060018054610133906107b7565b600681604051610320919061087b565b9081526040519081900360200190205460ff16156103805760405162461bcd60e51b815260206004820152601960248201527f4b727970746f4269726420416c726561647920457869737473000000000000006044820152606401610202565b6005805460018101825560009190915281516103c3917f036b6384b5eca791c62761152d0c79bb0604c104a5fb6f4eb0703f3154bb3db0019060208401906105ab565b506005546000906103d690600190610807565b90506103e23382610451565b61041b81600480546001810182556000919091527f8a35acfbc15ff81a39ae7d344fd709f28e8600b4aa8c65c6b64bfe7fe36bd19b0155565b600160068360405161042d919061087b565b908152604051908190036020019020805491151560ff199092169190911790555050565b6001600160a01b0382166104b15760405162461bcd60e51b815260206004820152602160248201527f4552433732313a20546865204f776e65722041646472657373206973203078306044820152601760f91b6064820152608401610202565b6000818152600260205260409020546001600160a01b0316156105285760405162461bcd60e51b815260206004820152602960248201527f4552433732313a2054686520746f6b656e2068617320616c7265616479206265604482015268195b881b5a5b9d195960ba1b6064820152608401610202565b600081815260026020908152604080832080546001600160a01b0319166001600160a01b03871690811790915583526003909152812080549161056a83610897565b909155505060405181906001600160a01b038416906000907fddf252ad1be2c89b69c2b068fc378daa952ba7f163c4a11628f55a4df523b3ef908290a45050565b8280546105b7906107b7565b90600052602060002090601f0160209004810192826105d9576000855561061f565b82601f106105f257805160ff191683800117855561061f565b8280016001018555821561061f579182015b8281111561061f578251825591602001919060010190610604565b5061062b92915061062f565b5090565b5b8082111561062b5760008155600101610630565b60005b8381101561065f578181015183820152602001610647565b8381111561066e576000848401525b50505050565b6020815260008251806020840152610693816040850160208701610644565b601f01601f19169190910160400192915050565b6000602082840312156106b957600080fd5b5035919050565b6000602082840312156106d257600080fd5b81356001600160a01b03811681146106e957600080fd5b9392505050565b634e487b7160e01b600052604160045260246000fd5b60006020828403121561071857600080fd5b813567ffffffffffffffff8082111561073057600080fd5b818401915084601f83011261074457600080fd5b813581811115610756576107566106f0565b604051601f8201601f19908116603f0116810190838211818310171561077e5761077e6106f0565b8160405282815287602084870101111561079757600080fd5b826020860160208301376000928101602001929092525095945050505050565b600181811c908216806107cb57607f821691505b6020821081036107eb57634e487b7160e01b600052602260045260246000fd5b50919050565b634e487b7160e01b600052601160045260246000fd5b600082821015610819576108196107f1565b500390565b60208082526037908201527f4552433732313a20546865204f776e657220416464726573732069732030783060408201527f2e204f776e657220646f6573206e6f742065786973742e000000000000000000606082015260800190565b6000825161088d818460208701610644565b9190910192915050565b6000600182016108a9576108a96107f1565b506001019056fea2646970667358221220c0ea01d90b291fb2a510a5703329091fa496ac854afbadcbdf6654d9f6a08edf64736f6c634300080d0033",
  "immutableReferences": {},
  "source": "// SPDX-License-Identifier: MIT\r\npragma solidity ^0.8.0;\r\n\r\nimport \"./ERC721Connector.sol\";\r\n\r\ncontract KryptoBirdz is Connector {\r\n     \r\n    // Making an array\r\n    string [] public kryptoBirdz;\r\n\r\n    // Error Handeling\r\n    mapping(string => bool) _kryptoBirdExists;\r\n\r\n    function mint(string memory _kryptoBird) public {\r\n        require(_kryptoBirdExists[_kryptoBird] == false, \"KryptoBird Already Exists\");\r\n        \r\n        kryptoBirdz.push(_kryptoBird);\r\n        uint256 _id = kryptoBirdz.length - 1;\r\n        _mint(msg.sender, _id);\r\n        _updateTokens(_id);\r\n\r\n        _kryptoBirdExists[_kryptoBird] =  true;\r\n    }\r\n    \r\n    string private name = \"KryptoBirdz\";\r\n    string private symbol = \"KBirdz\";\r\n    \r\n    constructor() Connector(name, symbol) {}    \r\n}\r\n\r\n\r\n\r\n\r\n\r\n\r\n\r\n\r\n\r\n\r\n\r\n\r\n\r\n\r\n\r\n\r\n\r\n\r\n\r\n\r\n\r\n\r\n\r\n\r\n\r\n\r\n\r\n\r\n\r\n\r\n\r\n\r\n\r\n\r\n// // array to store data\r\n//     string[] public kryptoBirdz;\r\n    \r\n//     // Error Handeling\r\n//     mapping(string => bool) _kryptoBirdzExists;\r\n\r\n//     function mint(string memory _kryptoBird) public {\r\n//         require(_kryptoBirdzExists[_kryptoBird] == false, \"KryptoBirdz: The kryptoBirdz already exists.\");\r\n        \r\n//         kryptoBirdz.push(_kryptoBird);\r\n//         uint _id = kryptoBirdz.length - 1;\r\n\r\n//         _mint(msg.sender, _id);\r\n\r\n//         _kryptoBirdzExists[_kryptoBird] = true;\r\n//     }\r\n\r\n//     string private name = 'KryptoBird';\r\n//     string private symbol = 'KBIRDZ';\r\n    \r\n//     constructor() Connector(name, symbol){}",
  "sourcePath": "D:\\Projects\\Block Chain\\Block-Chain-Learning\\nft-marketplace\\src\\contracts\\KryptoBirdz.sol",
  "compiler": {
    "name": "solc",
    "version": "0.8.13+commit.abaa5c0e.Emscripten.clang"
  },
  "schemaVersion": "3.4.6",
  "updatedAt": "2022-04-06T22:38:24.174Z",
  "networkType": "ethereum",
  "devdoc": {
    "kind": "dev",
    "methods": {
      "totalSupply()": {
        "returns": {
          "_0": "A count of valid NFTs tracked by this contract, where each one of  them has an assigned and queryable owner not equal to the zero address"
        }
      }
    },
    "version": 1
  },
  "userdoc": {
    "kind": "user",
    "methods": {
      "totalSupply()": {
        "notice": "Count NFTs tracked by this contract"
      }
    },
    "version": 1
  }
}