{
  "contractName": "KryptoBirdz",
  "abi": [
    {
      "inputs": [],
      "stateMutability": "nonpayable",
      "type": "constructor"
    },
    {
      "anonymous": false,
      "inputs": [
        {
          "indexed": true,
          "internalType": "address",
          "name": "to",
          "type": "address"
        },
        {
          "indexed": true,
          "internalType": "address",
          "name": "from",
          "type": "address"
        },
        {
          "indexed": true,
          "internalType": "uint256",
          "name": "_tokenId",
          "type": "uint256"
        }
      ],
      "name": "Transfer",
      "type": "event"
    },
    {
      "inputs": [
        {
          "internalType": "uint256",
          "name": "",
          "type": "uint256"
        }
      ],
      "name": "kryptoBirdz",
      "outputs": [
        {
          "internalType": "string",
          "name": "",
          "type": "string"
        }
      ],
      "stateMutability": "view",
      "type": "function",
      "constant": true
    },
    {
      "inputs": [],
      "name": "name",
      "outputs": [
        {
          "internalType": "string",
          "name": "",
          "type": "string"
        }
      ],
      "stateMutability": "view",
      "type": "function",
      "constant": true
    },
    {
      "inputs": [],
      "name": "symbol",
      "outputs": [
        {
          "internalType": "string",
          "name": "",
          "type": "string"
        }
      ],
      "stateMutability": "view",
      "type": "function",
      "constant": true
    },
    {
      "inputs": [
        {
          "internalType": "string",
          "name": "_kryptoBird",
          "type": "string"
        }
      ],
      "name": "mint",
      "outputs": [],
      "stateMutability": "nonpayable",
      "type": "function"
    }
  ],
  "bytecode": "0x60c0604052600b60808190526a25b93cb83a37a134b9323d60a91b60a09081526200002e9160069190620001cd565b506040805180820190915260068082526525a134b9323d60d11b60209092019182526200005e91600791620001cd565b503480156200006c57600080fd5b50600680546200007c9062000273565b80601f0160208091040260200160405190810160405280929190818152602001828054620000aa9062000273565b8015620000fb5780601f10620000cf57610100808354040283529160200191620000fb565b820191906000526020600020905b815481529060010190602001808311620000dd57829003601f168201915b5050505050600780546200010f9062000273565b80601f01602080910402602001604051908101604052809291908181526020018280546200013d9062000273565b80156200018e5780601f1062000162576101008083540402835291602001916200018e565b820191906000526020600020905b8154815290600101906020018083116200017057829003601f168201915b50508451859350849250620001ac91506000906020850190620001cd565b508051620001c2906001906020840190620001cd565b5050505050620002af565b828054620001db9062000273565b90600052602060002090601f016020900481019282620001ff57600085556200024a565b82601f106200021a57805160ff19168380011785556200024a565b828001600101855582156200024a579182015b828111156200024a5782518255916020019190600101906200022d565b50620002589291506200025c565b5090565b5b808211156200025857600081556001016200025d565b600181811c908216806200028857607f821691505b602082108103620002a957634e487b7160e01b600052602260045260246000fd5b50919050565b61070180620002bf6000396000f3fe608060405234801561001057600080fd5b506004361061004c5760003560e01c806306fdde031461005157806393ab6e561461006f57806395d89b4114610082578063d85d3d271461008a575b600080fd5b61005961009f565b604051610066919061051c565b60405180910390f35b61005961007d36600461054f565b610131565b6100596101dd565b61009d61009836600461057e565b6101ec565b005b6060600080546100ae9061062f565b80601f01602080910402602001604051908101604052809291908181526020018280546100da9061062f565b80156101275780601f106100fc57610100808354040283529160200191610127565b820191906000526020600020905b81548152906001019060200180831161010a57829003601f168201915b5050505050905090565b6004818154811061014157600080fd5b90600052602060002001600091509050805461015c9061062f565b80601f01602080910402602001604051908101604052809291908181526020018280546101889061062f565b80156101d55780601f106101aa576101008083540402835291602001916101d5565b820191906000526020600020905b8154815290600101906020018083116101b857829003601f168201915b505050505081565b6060600180546100ae9061062f565b6005816040516101fc9190610669565b9081526040519081900360200190205460ff16156102615760405162461bcd60e51b815260206004820152601960248201527f4b727970746f4269726420416c7265616479204578697374730000000000000060448201526064015b60405180910390fd5b6004805460018101825560009190915281516102a4917f8a35acfbc15ff81a39ae7d344fd709f28e8600b4aa8c65c6b64bfe7fe36bd19b01906020840190610453565b506004546000906102b79060019061069b565b90506102c333826102f9565b60016005836040516102d59190610669565b908152604051908190036020019020805491151560ff199092169190911790555050565b6001600160a01b0382166103595760405162461bcd60e51b815260206004820152602160248201527f4552433732313a20546865204f776e65722041646472657373206973203078306044820152601760f91b6064820152608401610258565b6000818152600260205260409020546001600160a01b0316156103d05760405162461bcd60e51b815260206004820152602960248201527f4552433732313a2054686520746f6b656e2068617320616c7265616479206265604482015268195b881b5a5b9d195960ba1b6064820152608401610258565b600081815260026020908152604080832080546001600160a01b0319166001600160a01b038716908117909155835260039091528120805491610412836106b2565b909155505060405181906001600160a01b038416906000907fddf252ad1be2c89b69c2b068fc378daa952ba7f163c4a11628f55a4df523b3ef908290a45050565b82805461045f9061062f565b90600052602060002090601f01602090048101928261048157600085556104c7565b82601f1061049a57805160ff19168380011785556104c7565b828001600101855582156104c7579182015b828111156104c75782518255916020019190600101906104ac565b506104d39291506104d7565b5090565b5b808211156104d357600081556001016104d8565b60005b838110156105075781810151838201526020016104ef565b83811115610516576000848401525b50505050565b602081526000825180602084015261053b8160408501602087016104ec565b601f01601f19169190910160400192915050565b60006020828403121561056157600080fd5b5035919050565b634e487b7160e01b600052604160045260246000fd5b60006020828403121561059057600080fd5b813567ffffffffffffffff808211156105a857600080fd5b818401915084601f8301126105bc57600080fd5b8135818111156105ce576105ce610568565b604051601f8201601f19908116603f011681019083821181831017156105f6576105f6610568565b8160405282815287602084870101111561060f57600080fd5b826020860160208301376000928101602001929092525095945050505050565b600181811c9082168061064357607f821691505b60208210810361066357634e487b7160e01b600052602260045260246000fd5b50919050565b6000825161067b8184602087016104ec565b9190910192915050565b634e487b7160e01b600052601160045260246000fd5b6000828210156106ad576106ad610685565b500390565b6000600182016106c4576106c4610685565b506001019056fea26469706673582212202c570b34298354e0c4d7249d18bc2c5930710f0b6d2a0169433781d0f672ff5e64736f6c634300080d0033",
  "immutableReferences": {},
  "source": "// SPDX-License-Identifier: MIT\r\npragma solidity ^0.8.7;\r\n\r\nimport \"./ERC721Connector.sol\";\r\n\r\ncontract KryptoBirdz is Connector {\r\n     \r\n    // Making an array\r\n    string [] public kryptoBirdz;\r\n\r\n    // Error Handeling\r\n    mapping(string => bool) _kryptoBirdExists;\r\n\r\n    function mint(string memory _kryptoBird) public {\r\n        require(_kryptoBirdExists[_kryptoBird] == false, \"KryptoBird Already Exists\");\r\n        \r\n        kryptoBirdz.push(_kryptoBird);\r\n        uint _id = kryptoBirdz.length - 1;\r\n        _mint(msg.sender, _id);\r\n\r\n        _kryptoBirdExists[_kryptoBird] =  true;\r\n    }\r\n    \r\n    string private name = \"KryptoBirdz\";\r\n    string private symbol = \"KBirdz\";\r\n    \r\n    constructor() Connector(name, symbol) {}\r\n\r\n    \r\n}\r\n\r\n\r\n\r\n\r\n\r\n\r\n\r\n\r\n\r\n\r\n\r\n\r\n\r\n\r\n\r\n\r\n\r\n\r\n\r\n\r\n\r\n\r\n\r\n\r\n\r\n\r\n\r\n\r\n\r\n\r\n\r\n\r\n\r\n\r\n// // array to store data\r\n//     string[] public kryptoBirdz;\r\n    \r\n//     // Error Handeling\r\n//     mapping(string => bool) _kryptoBirdzExists;\r\n\r\n//     function mint(string memory _kryptoBird) public {\r\n//         require(_kryptoBirdzExists[_kryptoBird] == false, \"KryptoBirdz: The kryptoBirdz already exists.\");\r\n        \r\n//         kryptoBirdz.push(_kryptoBird);\r\n//         uint _id = kryptoBirdz.length - 1;\r\n\r\n//         _mint(msg.sender, _id);\r\n\r\n//         _kryptoBirdzExists[_kryptoBird] = true;\r\n//     }\r\n\r\n//     string private name = 'KryptoBird';\r\n//     string private symbol = 'KBIRDZ';\r\n    \r\n//     constructor() Connector(name, symbol){}",
  "sourcePath": "D:\\Projects\\Block Chain\\Block-Chain-Learning\\nft-marketplace\\src\\contracts\\KryptoBirdz.sol",
  "compiler": {
    "name": "solc",
    "version": "0.8.13+commit.abaa5c0e.Emscripten.clang"
  },
  "schemaVersion": "3.4.6",
  "updatedAt": "2022-04-06T01:57:52.774Z",
  "networkType": "ethereum",
  "devdoc": {
    "kind": "dev",
    "methods": {},
    "version": 1
  },
  "userdoc": {
    "kind": "user",
    "methods": {},
    "version": 1
  }
}