{
  "contractName": "KryptoBirdz",
  "abi": [
    {
      "inputs": [],
      "stateMutability": "nonpayable",
      "type": "constructor"
    },
    {
      "anonymous": false,
      "inputs": [
        {
          "indexed": true,
          "internalType": "address",
          "name": "to",
          "type": "address"
        },
        {
          "indexed": true,
          "internalType": "address",
          "name": "from",
          "type": "address"
        },
        {
          "indexed": true,
          "internalType": "uint256",
          "name": "_tokenId",
          "type": "uint256"
        }
      ],
      "name": "Transfer",
      "type": "event"
    },
    {
      "inputs": [
        {
          "internalType": "address",
          "name": "_owner",
          "type": "address"
        }
      ],
      "name": "balanceOf",
      "outputs": [
        {
          "internalType": "uint256",
          "name": "",
          "type": "uint256"
        }
      ],
      "stateMutability": "view",
      "type": "function",
      "constant": true
    },
    {
      "inputs": [
        {
          "internalType": "uint256",
          "name": "",
          "type": "uint256"
        }
      ],
      "name": "kryptoBirdz",
      "outputs": [
        {
          "internalType": "string",
          "name": "",
          "type": "string"
        }
      ],
      "stateMutability": "view",
      "type": "function",
      "constant": true
    },
    {
      "inputs": [],
      "name": "name",
      "outputs": [
        {
          "internalType": "string",
          "name": "",
          "type": "string"
        }
      ],
      "stateMutability": "view",
      "type": "function",
      "constant": true
    },
    {
      "inputs": [
        {
          "internalType": "uint256",
          "name": "_owner",
          "type": "uint256"
        }
      ],
      "name": "ownerOf",
      "outputs": [
        {
          "internalType": "address",
          "name": "",
          "type": "address"
        }
      ],
      "stateMutability": "view",
      "type": "function",
      "constant": true
    },
    {
      "inputs": [],
      "name": "symbol",
      "outputs": [
        {
          "internalType": "string",
          "name": "",
          "type": "string"
        }
      ],
      "stateMutability": "view",
      "type": "function",
      "constant": true
    },
    {
      "inputs": [
        {
          "internalType": "uint256",
          "name": "index",
          "type": "uint256"
        }
      ],
      "name": "tokenByIndex",
      "outputs": [
        {
          "internalType": "uint256",
          "name": "",
          "type": "uint256"
        }
      ],
      "stateMutability": "view",
      "type": "function",
      "constant": true
    },
    {
      "inputs": [
        {
          "internalType": "address",
          "name": "owner",
          "type": "address"
        },
        {
          "internalType": "uint256",
          "name": "index",
          "type": "uint256"
        }
      ],
      "name": "tokenOwnerByIndex",
      "outputs": [
        {
          "internalType": "uint256",
          "name": "",
          "type": "uint256"
        }
      ],
      "stateMutability": "view",
      "type": "function",
      "constant": true
    },
    {
      "inputs": [],
      "name": "totalSupply",
      "outputs": [
        {
          "internalType": "uint256",
          "name": "",
          "type": "uint256"
        }
      ],
      "stateMutability": "view",
      "type": "function",
      "constant": true
    },
    {
      "inputs": [
        {
          "internalType": "string",
          "name": "_kryptoBird",
          "type": "string"
        }
      ],
      "name": "mint",
      "outputs": [],
      "stateMutability": "nonpayable",
      "type": "function"
    }
  ],
  "bytecode": "0x60c0604052600b60808190526a25b93cb83a37a134b9323d60a91b60a09081526200002e91600a9190620001cd565b506040805180820190915260068082526525a134b9323d60d11b60209092019182526200005e91600b91620001cd565b503480156200006c57600080fd5b50600a80546200007c9062000273565b80601f0160208091040260200160405190810160405280929190818152602001828054620000aa9062000273565b8015620000fb5780601f10620000cf57610100808354040283529160200191620000fb565b820191906000526020600020905b815481529060010190602001808311620000dd57829003601f168201915b5050505050600b80546200010f9062000273565b80601f01602080910402602001604051908101604052809291908181526020018280546200013d9062000273565b80156200018e5780601f1062000162576101008083540402835291602001916200018e565b820191906000526020600020905b8154815290600101906020018083116200017057829003601f168201915b50508451859350849250620001ac91506000906020850190620001cd565b508051620001c2906001906020840190620001cd565b5050505050620002af565b828054620001db9062000273565b90600052602060002090601f016020900481019282620001ff57600085556200024a565b82601f106200021a57805160ff19168380011785556200024a565b828001600101855582156200024a579182015b828111156200024a5782518255916020019190600101906200022d565b50620002589291506200025c565b5090565b5b808211156200025857600081556001016200025d565b600181811c908216806200028857607f821691505b602082108103620002a957634e487b7160e01b600052602260045260246000fd5b50919050565b610aed80620002bf6000396000f3fe608060405234801561001057600080fd5b50600436106100935760003560e01c806370a082311161006657806370a082311461010657806393ab6e561461011957806395d89b411461012c578063a83328b314610134578063d85d3d271461014757600080fd5b806306fdde031461009857806318160ddd146100b65780634f6ccce7146100c85780636352211e146100db575b600080fd5b6100a061015c565b6040516100ad919061082d565b60405180910390f35b6004545b6040519081526020016100ad565b6100ba6100d6366004610860565b6101ee565b6100ee6100e9366004610860565b610285565b6040516001600160a01b0390911681526020016100ad565b6100ba610114366004610895565b6102c0565b6100a0610127366004610860565b610304565b6100a06103b0565b6100ba6101423660046108b7565b6103bf565b61015a6101553660046108f7565b610468565b005b60606000805461016b906109a8565b80601f0160208091040260200160405190810160405280929190818152602001828054610197906109a8565b80156101e45780601f106101b9576101008083540402835291602001916101e4565b820191906000526020600020905b8154815290600101906020018083116101c757829003601f168201915b5050505050905090565b60006101f960045490565b82106102605760405162461bcd60e51b815260206004820152602b60248201527f476c6f62616c20496e646578206973206c61676572207468616e20746865207460448201526a6f74616c20537570706c7960a81b60648201526084015b60405180910390fd5b60048281548110610273576102736109e2565b90600052602060002001549050919050565b6000818152600260205260408120546001600160a01b0316806102ba5760405162461bcd60e51b8152600401610257906109f8565b92915050565b60006001600160a01b0382166102e85760405162461bcd60e51b8152600401610257906109f8565b506001600160a01b031660009081526003602052604090205490565b6008818154811061031457600080fd5b90600052602060002001600091509050805461032f906109a8565b80601f016020809104026020016040519081016040528092919081815260200182805461035b906109a8565b80156103a85780601f1061037d576101008083540402835291602001916103a8565b820191906000526020600020905b81548152906001019060200180831161038b57829003601f168201915b505050505081565b60606001805461016b906109a8565b60006103ca836102c0565b821061042b5760405162461bcd60e51b815260206004820152602a60248201527f4f776e657220696e646578206973206c61676572207468616e2074686520746f60448201526974616c20537570706c7960b01b6064820152608401610257565b6001600160a01b0383166000908152600660205260409020805483908110610455576104556109e2565b9060005260206000200154905092915050565b6009816040516104789190610a55565b9081526040519081900360200190205460ff16156104d85760405162461bcd60e51b815260206004820152601960248201527f4b727970746f4269726420416c726561647920457869737473000000000000006044820152606401610257565b60088054600181018255600091909152815161051b917ff3f7a9fe364faab93b216da50a3214154f22a0a2b415b23a84c8169e8b636ee301906020840190610764565b5060085460009061052e90600190610a87565b905061053a3382610570565b600160098360405161054c9190610a55565b908152604051908190036020019020805491151560ff199092169190911790555050565b61057a828261060a565b60048054600180820183557f8a35acfbc15ff81a39ae7d344fd709f28e8600b4aa8c65c6b64bfe7fe36bd19b918201849055825460008581526005602052604081208290559181018455929052018190556001600160a01b039190911660009081526006602081815260408084208054868652600784529185208290559282526001810183559183529091200155565b6001600160a01b03821661066a5760405162461bcd60e51b815260206004820152602160248201527f4552433732313a20546865204f776e65722041646472657373206973203078306044820152601760f91b6064820152608401610257565b6000818152600260205260409020546001600160a01b0316156106e15760405162461bcd60e51b815260206004820152602960248201527f4552433732313a2054686520746f6b656e2068617320616c7265616479206265604482015268195b881b5a5b9d195960ba1b6064820152608401610257565b600081815260026020908152604080832080546001600160a01b0319166001600160a01b03871690811790915583526003909152812080549161072383610a9e565b909155505060405181906001600160a01b038416906000907fddf252ad1be2c89b69c2b068fc378daa952ba7f163c4a11628f55a4df523b3ef908290a45050565b828054610770906109a8565b90600052602060002090601f01602090048101928261079257600085556107d8565b82601f106107ab57805160ff19168380011785556107d8565b828001600101855582156107d8579182015b828111156107d85782518255916020019190600101906107bd565b506107e49291506107e8565b5090565b5b808211156107e457600081556001016107e9565b60005b83811015610818578181015183820152602001610800565b83811115610827576000848401525b50505050565b602081526000825180602084015261084c8160408501602087016107fd565b601f01601f19169190910160400192915050565b60006020828403121561087257600080fd5b5035919050565b80356001600160a01b038116811461089057600080fd5b919050565b6000602082840312156108a757600080fd5b6108b082610879565b9392505050565b600080604083850312156108ca57600080fd5b6108d383610879565b946020939093013593505050565b634e487b7160e01b600052604160045260246000fd5b60006020828403121561090957600080fd5b813567ffffffffffffffff8082111561092157600080fd5b818401915084601f83011261093557600080fd5b813581811115610947576109476108e1565b604051601f8201601f19908116603f0116810190838211818310171561096f5761096f6108e1565b8160405282815287602084870101111561098857600080fd5b826020860160208301376000928101602001929092525095945050505050565b600181811c908216806109bc57607f821691505b6020821081036109dc57634e487b7160e01b600052602260045260246000fd5b50919050565b634e487b7160e01b600052603260045260246000fd5b60208082526037908201527f4552433732313a20546865204f776e657220416464726573732069732030783060408201527f2e204f776e657220646f6573206e6f742065786973742e000000000000000000606082015260800190565b60008251610a678184602087016107fd565b9190910192915050565b634e487b7160e01b600052601160045260246000fd5b600082821015610a9957610a99610a71565b500390565b600060018201610ab057610ab0610a71565b506001019056fea2646970667358221220d2eafef0a10b5ada58ac3b7ae3727342ffeebf6af3e2c5380b5f8c475e3e379864736f6c634300080d0033",
  "immutableReferences": {},
  "source": "// SPDX-License-Identifier: MIT\r\npragma solidity ^0.8.0;\r\n\r\nimport \"./ERC721Connector.sol\";\r\n\r\ncontract KryptoBirdz is Connector {\r\n     \r\n    // Making an array\r\n    string [] public kryptoBirdz;\r\n\r\n    // Error Handeling\r\n    mapping(string => bool) _kryptoBirdExists;\r\n\r\n    function mint(string memory _kryptoBird) public {\r\n        require(_kryptoBirdExists[_kryptoBird] == false, \"KryptoBird Already Exists\");\r\n        \r\n        kryptoBirdz.push(_kryptoBird);\r\n        uint256 _id = kryptoBirdz.length - 1;\r\n        _mint(msg.sender, _id);\r\n\r\n        _kryptoBirdExists[_kryptoBird] =  true;\r\n    }\r\n    \r\n    string private name = \"KryptoBirdz\";\r\n    string private symbol = \"KBirdz\";\r\n    \r\n    constructor() Connector(name, symbol) {}    \r\n}\r\n\r\n\r\n\r\n\r\n\r\n\r\n\r\n\r\n\r\n\r\n\r\n\r\n\r\n\r\n\r\n\r\n\r\n\r\n\r\n\r\n\r\n\r\n\r\n\r\n\r\n\r\n\r\n\r\n\r\n\r\n\r\n\r\n\r\n\r\n// // array to store data\r\n//     string[] public kryptoBirdz;\r\n    \r\n//     // Error Handeling\r\n//     mapping(string => bool) _kryptoBirdzExists;\r\n\r\n//     function mint(string memory _kryptoBird) public {\r\n//         require(_kryptoBirdzExists[_kryptoBird] == false, \"KryptoBirdz: The kryptoBirdz already exists.\");\r\n        \r\n//         kryptoBirdz.push(_kryptoBird);\r\n//         uint _id = kryptoBirdz.length - 1;\r\n\r\n//         _mint(msg.sender, _id);\r\n\r\n//         _kryptoBirdzExists[_kryptoBird] = true;\r\n//     }\r\n\r\n//     string private name = 'KryptoBird';\r\n//     string private symbol = 'KBIRDZ';\r\n    \r\n//     constructor() Connector(name, symbol){}",
  "sourcePath": "D:\\Projects\\Block Chain\\Block-Chain-Learning\\nft-marketplace\\src\\contracts\\KryptoBirdz.sol",
  "compiler": {
    "name": "solc",
    "version": "0.8.13+commit.abaa5c0e.Emscripten.clang"
  },
  "schemaVersion": "3.4.6",
  "updatedAt": "2022-04-07T19:48:16.881Z",
  "networkType": "ethereum",
  "devdoc": {
    "kind": "dev",
    "methods": {},
    "version": 1
  },
  "userdoc": {
    "kind": "user",
    "methods": {},
    "version": 1
  }
}