{
  "contractName": "KryptoBird",
  "abi": [
    {
      "inputs": [],
      "stateMutability": "nonpayable",
      "type": "constructor"
    },
    {
      "anonymous": false,
      "inputs": [
        {
          "indexed": true,
          "internalType": "address",
          "name": "_owner",
          "type": "address"
        },
        {
          "indexed": true,
          "internalType": "address",
          "name": "_approved",
          "type": "address"
        },
        {
          "indexed": true,
          "internalType": "uint256",
          "name": "_tokenId",
          "type": "uint256"
        }
      ],
      "name": "Approval",
      "type": "event"
    },
    {
      "anonymous": false,
      "inputs": [
        {
          "indexed": true,
          "internalType": "address",
          "name": "_from",
          "type": "address"
        },
        {
          "indexed": true,
          "internalType": "address",
          "name": "_to",
          "type": "address"
        },
        {
          "indexed": true,
          "internalType": "uint256",
          "name": "_tokenId",
          "type": "uint256"
        }
      ],
      "name": "Transfer",
      "type": "event"
    },
    {
      "inputs": [
        {
          "internalType": "address",
          "name": "_to",
          "type": "address"
        },
        {
          "internalType": "uint256",
          "name": "tokenId",
          "type": "uint256"
        }
      ],
      "name": "approve",
      "outputs": [],
      "stateMutability": "nonpayable",
      "type": "function"
    },
    {
      "inputs": [
        {
          "internalType": "address",
          "name": "_owner",
          "type": "address"
        }
      ],
      "name": "balanceOf",
      "outputs": [
        {
          "internalType": "uint256",
          "name": "",
          "type": "uint256"
        }
      ],
      "stateMutability": "view",
      "type": "function",
      "constant": true
    },
    {
      "inputs": [
        {
          "internalType": "uint256",
          "name": "",
          "type": "uint256"
        }
      ],
      "name": "kryptoBirdz",
      "outputs": [
        {
          "internalType": "string",
          "name": "",
          "type": "string"
        }
      ],
      "stateMutability": "view",
      "type": "function",
      "constant": true
    },
    {
      "inputs": [],
      "name": "name",
      "outputs": [
        {
          "internalType": "string",
          "name": "",
          "type": "string"
        }
      ],
      "stateMutability": "view",
      "type": "function",
      "constant": true
    },
    {
      "inputs": [
        {
          "internalType": "uint256",
          "name": "_tokenId",
          "type": "uint256"
        }
      ],
      "name": "ownerOf",
      "outputs": [
        {
          "internalType": "address",
          "name": "",
          "type": "address"
        }
      ],
      "stateMutability": "view",
      "type": "function",
      "constant": true
    },
    {
      "inputs": [
        {
          "internalType": "bytes4",
          "name": "interfaceID",
          "type": "bytes4"
        }
      ],
      "name": "supportsInterface",
      "outputs": [
        {
          "internalType": "bool",
          "name": "",
          "type": "bool"
        }
      ],
      "stateMutability": "view",
      "type": "function",
      "constant": true
    },
    {
      "inputs": [],
      "name": "symbol",
      "outputs": [
        {
          "internalType": "string",
          "name": "",
          "type": "string"
        }
      ],
      "stateMutability": "view",
      "type": "function",
      "constant": true
    },
    {
      "inputs": [
        {
          "internalType": "uint256",
          "name": "index",
          "type": "uint256"
        }
      ],
      "name": "tokenByIndex",
      "outputs": [
        {
          "internalType": "uint256",
          "name": "",
          "type": "uint256"
        }
      ],
      "stateMutability": "view",
      "type": "function",
      "constant": true
    },
    {
      "inputs": [
        {
          "internalType": "address",
          "name": "owner",
          "type": "address"
        },
        {
          "internalType": "uint256",
          "name": "index",
          "type": "uint256"
        }
      ],
      "name": "tokenOfOwnerByIndex",
      "outputs": [
        {
          "internalType": "uint256",
          "name": "",
          "type": "uint256"
        }
      ],
      "stateMutability": "view",
      "type": "function",
      "constant": true
    },
    {
      "inputs": [],
      "name": "totalSupply",
      "outputs": [
        {
          "internalType": "uint256",
          "name": "",
          "type": "uint256"
        }
      ],
      "stateMutability": "view",
      "type": "function",
      "constant": true
    },
    {
      "inputs": [
        {
          "internalType": "address",
          "name": "_from",
          "type": "address"
        },
        {
          "internalType": "address",
          "name": "_to",
          "type": "address"
        },
        {
          "internalType": "uint256",
          "name": "_tokenId",
          "type": "uint256"
        }
      ],
      "name": "transferFrom",
      "outputs": [],
      "stateMutability": "nonpayable",
      "type": "function"
    },
    {
      "inputs": [
        {
          "internalType": "string",
          "name": "_kryptoBird",
          "type": "string"
        }
      ],
      "name": "mint",
      "outputs": [],
      "stateMutability": "nonpayable",
      "type": "function"
    }
  ],
  "bytecode": "0x60806040523480156200001157600080fd5b506040518060400160405280600a81526020016912dc9e5c1d1bd09a5c9960b21b8152506040518060400160405280600681526020016525a124a9222d60d11b8152508181620000877f01ffc9a7a5cef8baa21ed3c5c0d7e23accb804b619e9333b597f47a0d84076e26200014060201b60201c565b620000b27f6c5b7360b116f8fd1d2a1ccb905de5c6a9e91e31b88b8db3cd997e184f357e9f62000140565b8151620000c7906001906020850190620001c4565b508051620000dd906002906020840190620001c4565b506200010d91507f92d8a794d910422f7549620ed7a8f75c2c42d18032da05c61ed89586344e965e905062000140565b620001387f2aa3f4710f58b303977da296b62cadae054c8971d883298d8ed6c6c0565c13c162000140565b5050620002a6565b6001600160e01b031980821690036200019f5760405162461bcd60e51b815260206004820152601960248201527f496e76616c696420696e74657266616365207265717565737400000000000000604482015260640160405180910390fd5b6001600160e01b0319166000908152602081905260409020805460ff19166001179055565b828054620001d2906200026a565b90600052602060002090601f016020900481019282620001f6576000855562000241565b82601f106200021157805160ff191683800117855562000241565b8280016001018555821562000241579182015b828111156200024157825182559160200191906001019062000224565b506200024f92915062000253565b5090565b5b808211156200024f576000815560010162000254565b600181811c908216806200027f57607f821691505b602082108103620002a057634e487b7160e01b600052602260045260246000fd5b50919050565b610f0e80620002b66000396000f3fe608060405234801561001057600080fd5b50600436106100b45760003560e01c80634f6ccce7116100715780634f6ccce71461015d5780636352211e1461017057806370a082311461019b57806393ab6e56146101ae57806395d89b41146101c1578063d85d3d27146101c957600080fd5b806301ffc9a7146100b957806306fdde03146100fb578063095ea7b31461011057806318160ddd1461012557806323b872dd146101375780632f745c591461014a575b600080fd5b6100e66100c7366004610bd4565b6001600160e01b03191660009081526020819052604090205460ff1690565b60405190151581526020015b60405180910390f35b6101036101dc565b6040516100f29190610c35565b61012361011e366004610c84565b61026e565b005b6006545b6040519081526020016100f2565b610123610145366004610cae565b6103b4565b610129610158366004610c84565b6103d7565b61012961016b366004610cea565b61046d565b61018361017e366004610cea565b6104eb565b6040516001600160a01b0390911681526020016100f2565b6101296101a9366004610d03565b610526565b6101036101bc366004610cea565b61056a565b610103610616565b6101236101d7366004610d34565b610625565b6060600180546101eb90610de5565b80601f016020809104026020016040519081016040528092919081815260200182805461021790610de5565b80156102645780601f1061023957610100808354040283529160200191610264565b820191906000526020600020905b81548152906001019060200180831161024757829003601f168201915b5050505050905090565b6000610279826104eb565b9050806001600160a01b0316836001600160a01b0316036102eb5760405162461bcd60e51b815260206004820152602160248201527f4572726f72202d20617070726f76616c20746f2063757272656e74206f776e656044820152603960f91b60648201526084015b60405180910390fd5b336001600160a01b038216146103585760405162461bcd60e51b815260206004820152602c60248201527f43757272656e742063616c6c6572206973206e6f7420746865206f776e65722060448201526b37b3103a3432903a37b5b2b760a11b60648201526084016102e2565b60008281526005602052604080822080546001600160a01b0319166001600160a01b0387811691821790925591518593918516917f8c5be1e5ebec7d5bd14f71427d1e84f3dd0314c0f7b2291e5b200ac8c7c3b92591a4505050565b6103be3382610737565b6103c757600080fd5b6103d28383836107b4565b505050565b60006103e283610526565b82106104305760405162461bcd60e51b815260206004820152601d60248201527f6f776e657220696e646578206973206f7574206f6620626f756e64732100000060448201526064016102e2565b6001600160a01b038316600090815260086020526040902080548390811061045a5761045a610e1f565b9060005260206000200154905092915050565b600061047860065490565b82106104c65760405162461bcd60e51b815260206004820152601e60248201527f676c6f62616c20696e646578206973206f7574206f6620626f756e647321000060448201526064016102e2565b600682815481106104d9576104d9610e1f565b90600052602060002001549050919050565b6000818152600360205260408120546001600160a01b0316806105205760405162461bcd60e51b81526004016102e290610e35565b92915050565b60006001600160a01b03821661054e5760405162461bcd60e51b81526004016102e290610e35565b506001600160a01b031660009081526004602052604090205490565b600a818154811061057a57600080fd5b90600052602060002001600091509050805461059590610de5565b80601f01602080910402602001604051908101604052809291908181526020018280546105c190610de5565b801561060e5780601f106105e35761010080835404028352916020019161060e565b820191906000526020600020905b8154815290600101906020018083116105f157829003601f168201915b505050505081565b6060600280546101eb90610de5565b600b816040516106359190610e77565b9081526040519081900360200190205460ff161561069f5760405162461bcd60e51b815260206004820152602160248201527f4572726f72202d206b727970746f4269726420616c72656164792065786973746044820152607360f81b60648201526084016102e2565b600a805460018101825560009190915281516106e2917fc65a7bb8d6351c1cf70c95a316cc6a92839c986682d98bc35f958f4883f9d2a801906020840190610b3b565b50600a546000906106f590600190610ea9565b9050610701338261095c565b6001600b836040516107139190610e77565b908152604051908190036020019020805491151560ff199092169190911790555050565b6000818152600360205260408120546001600160a01b03166107925760405162461bcd60e51b81526020600482015260146024820152731d1bdad95b88191bd95cc81b9bdd08195e1a5cdd60621b60448201526064016102e2565b600061079d836104eb565b6001600160a01b0385811691161491505092915050565b6001600160a01b03821661081e5760405162461bcd60e51b815260206004820152602b60248201527f4572726f72202d20455243373231205472616e7366657220746f20746865207a60448201526a65726f206164647265737360a81b60648201526084016102e2565b826001600160a01b0316610831826104eb565b6001600160a01b0316146108a45760405162461bcd60e51b815260206004820152603460248201527f547279696e6720746f207472616e73666572206120746f6b656e20746865206160448201527364647265737320646f6573206e6f74206f776e2160601b60648201526084016102e2565b6001600160a01b03831660009081526004602052604081208054600192906108cd908490610ea9565b90915550506001600160a01b03821660009081526004602052604081208054600192906108fb908490610ec0565b909155505060008181526003602052604080822080546001600160a01b0319166001600160a01b0386811691821790925591518493918716917fddf252ad1be2c89b69c2b068fc378daa952ba7f163c4a11628f55a4df523b3ef91a4505050565b61096682826109ed565b6109ae81600680546000838152600760205260408120829055600182018355919091527ff652222313e28459528d920b65115c16c04f3efc82aaedc97be59f3f377c0d3f0155565b6001600160a01b039190911660009081526008602081815260408084208054868652600984529185208290559282526001810183559183529091200155565b6001600160a01b038216610a4e5760405162461bcd60e51b815260206004820152602260248201527f4552433732313a206d696e74696e6720746f20746865207a65726f2061646472604482015261657360f01b60648201526084016102e2565b6000818152600360205260409020546001600160a01b031615610ab35760405162461bcd60e51b815260206004820152601c60248201527f4552433732313a20746f6b656e20616c7265616479206d696e7465640000000060448201526064016102e2565b600081815260036020908152604080832080546001600160a01b0319166001600160a01b038716908117909155835260049091528120805460019290610afa908490610ec0565b909155505060405181906001600160a01b038416906000907fddf252ad1be2c89b69c2b068fc378daa952ba7f163c4a11628f55a4df523b3ef908290a45050565b828054610b4790610de5565b90600052602060002090601f016020900481019282610b695760008555610baf565b82601f10610b8257805160ff1916838001178555610baf565b82800160010185558215610baf579182015b82811115610baf578251825591602001919060010190610b94565b50610bbb929150610bbf565b5090565b5b80821115610bbb5760008155600101610bc0565b600060208284031215610be657600080fd5b81356001600160e01b031981168114610bfe57600080fd5b9392505050565b60005b83811015610c20578181015183820152602001610c08565b83811115610c2f576000848401525b50505050565b6020815260008251806020840152610c54816040850160208701610c05565b601f01601f19169190910160400192915050565b80356001600160a01b0381168114610c7f57600080fd5b919050565b60008060408385031215610c9757600080fd5b610ca083610c68565b946020939093013593505050565b600080600060608486031215610cc357600080fd5b610ccc84610c68565b9250610cda60208501610c68565b9150604084013590509250925092565b600060208284031215610cfc57600080fd5b5035919050565b600060208284031215610d1557600080fd5b610bfe82610c68565b634e487b7160e01b600052604160045260246000fd5b600060208284031215610d4657600080fd5b813567ffffffffffffffff80821115610d5e57600080fd5b818401915084601f830112610d7257600080fd5b813581811115610d8457610d84610d1e565b604051601f8201601f19908116603f01168101908382118183101715610dac57610dac610d1e565b81604052828152876020848701011115610dc557600080fd5b826020860160208301376000928101602001929092525095945050505050565b600181811c90821680610df957607f821691505b602082108103610e1957634e487b7160e01b600052602260045260246000fd5b50919050565b634e487b7160e01b600052603260045260246000fd5b60208082526022908201527f6f776e657220717565727920666f72206e6f6e2d6578697374656e7420746f6b60408201526132b760f11b606082015260800190565b60008251610e89818460208701610c05565b9190910192915050565b634e487b7160e01b600052601160045260246000fd5b600082821015610ebb57610ebb610e93565b500390565b60008219821115610ed357610ed3610e93565b50019056fea2646970667358221220b3ca572003962fd5bbffc698fcbc51f3743c954b085a56e515c6def9a0e49ab264736f6c634300080d0033",
  "immutableReferences": {},
  "source": "// SPDX-License-Identifier: MIT\npragma solidity ^0.8.0;\n\nimport './ERC721Connector.sol';\n\ncontract KryptoBird is ERC721Connector {\n\n    // array to store our nfts\n    string [] public kryptoBirdz;\n\n    mapping(string => bool) _kryptoBirdzExists;\n\n    function mint(string memory _kryptoBird) public {\n\n        require(!_kryptoBirdzExists[_kryptoBird], 'Error - kryptoBird already exists');\n        // this is deprecated - uint _id = KryptoBirdz.push(_kryptoBird);\n        kryptoBirdz.push(_kryptoBird);\n        uint _id = kryptoBirdz.length - 1;\n\n        // .push no longer returns the length but a ref to the added element\n        _mint(msg.sender, _id);\n\n        _kryptoBirdzExists[_kryptoBird] = true;\n\n    }\n\n    constructor() ERC721Connector('KryptoBird','KBIRDZ') {}\n\n}\n\n\n",
  "sourcePath": "D:\\Projects\\Block Chain\\Block-Chain-Learning\\nft-marketplace\\src\\contracts\\KryptoBirdz.sol",
  "compiler": {
    "name": "solc",
    "version": "0.8.13+commit.abaa5c0e.Emscripten.clang"
  },
  "schemaVersion": "3.4.6",
  "updatedAt": "2022-04-15T03:55:52.609Z",
  "networkType": "ethereum",
  "devdoc": {
    "kind": "dev",
    "methods": {
      "ownerOf(uint256)": {
        "details": "NFTs assigned to zero address are considered invalid, and queries  about them do throw.",
        "params": {
          "_tokenId": "The identifier for an NFT"
        },
        "returns": {
          "_0": "The address of the owner of the NFT"
        }
      },
      "supportsInterface(bytes4)": {
        "details": "Interface identification is specified in ERC-165. This function  uses less than 30,000 gas.",
        "params": {
          "interfaceID": "The interface identifier, as specified in ERC-165"
        },
        "returns": {
          "_0": "`true` if the contract implements `interfaceID` and  `interfaceID` is not 0xffffffff, `false` otherwise"
        }
      }
    },
    "version": 1
  },
  "userdoc": {
    "kind": "user",
    "methods": {
      "ownerOf(uint256)": {
        "notice": "Find the owner of an NFT"
      },
      "supportsInterface(bytes4)": {
        "notice": "Query if a contract implements an interface"
      }
    },
    "version": 1
  }
}