{
  "contractName": "KryptoBirdz",
  "abi": [
    {
      "inputs": [],
      "stateMutability": "nonpayable",
      "type": "constructor"
    },
    {
      "anonymous": false,
      "inputs": [
        {
          "indexed": true,
          "internalType": "address",
          "name": "to",
          "type": "address"
        },
        {
          "indexed": true,
          "internalType": "address",
          "name": "from",
          "type": "address"
        },
        {
          "indexed": true,
          "internalType": "uint256",
          "name": "_tokenId",
          "type": "uint256"
        }
      ],
      "name": "Transfer",
      "type": "event"
    },
    {
      "inputs": [
        {
          "internalType": "address",
          "name": "_owner",
          "type": "address"
        }
      ],
      "name": "balanceOf",
      "outputs": [
        {
          "internalType": "uint256",
          "name": "",
          "type": "uint256"
        }
      ],
      "stateMutability": "view",
      "type": "function",
      "constant": true
    },
    {
      "inputs": [
        {
          "internalType": "uint256",
          "name": "",
          "type": "uint256"
        }
      ],
      "name": "kryptoBirdz",
      "outputs": [
        {
          "internalType": "string",
          "name": "",
          "type": "string"
        }
      ],
      "stateMutability": "view",
      "type": "function",
      "constant": true
    },
    {
      "inputs": [],
      "name": "name",
      "outputs": [
        {
          "internalType": "string",
          "name": "",
          "type": "string"
        }
      ],
      "stateMutability": "view",
      "type": "function",
      "constant": true
    },
    {
      "inputs": [
        {
          "internalType": "uint256",
          "name": "_owner",
          "type": "uint256"
        }
      ],
      "name": "ownerOf",
      "outputs": [
        {
          "internalType": "address",
          "name": "",
          "type": "address"
        }
      ],
      "stateMutability": "view",
      "type": "function",
      "constant": true
    },
    {
      "inputs": [],
      "name": "symbol",
      "outputs": [
        {
          "internalType": "string",
          "name": "",
          "type": "string"
        }
      ],
      "stateMutability": "view",
      "type": "function",
      "constant": true
    },
    {
      "inputs": [],
      "name": "totalSupply",
      "outputs": [
        {
          "internalType": "uint256",
          "name": "",
          "type": "uint256"
        }
      ],
      "stateMutability": "view",
      "type": "function",
      "constant": true
    },
    {
      "inputs": [
        {
          "internalType": "string",
          "name": "_kryptoBird",
          "type": "string"
        }
      ],
      "name": "mint",
      "outputs": [],
      "stateMutability": "nonpayable",
      "type": "function"
    }
  ],
  "bytecode": "0x60c0604052600b60808190526a25b93cb83a37a134b9323d60a91b60a09081526200002e91600a9190620001cd565b506040805180820190915260068082526525a134b9323d60d11b60209092019182526200005e91600b91620001cd565b503480156200006c57600080fd5b50600a80546200007c9062000273565b80601f0160208091040260200160405190810160405280929190818152602001828054620000aa9062000273565b8015620000fb5780601f10620000cf57610100808354040283529160200191620000fb565b820191906000526020600020905b815481529060010190602001808311620000dd57829003601f168201915b5050505050600b80546200010f9062000273565b80601f01602080910402602001604051908101604052809291908181526020018280546200013d9062000273565b80156200018e5780601f1062000162576101008083540402835291602001916200018e565b820191906000526020600020905b8154815290600101906020018083116200017057829003601f168201915b50508451859350849250620001ac91506000906020850190620001cd565b508051620001c2906001906020840190620001cd565b5050505050620002af565b828054620001db9062000273565b90600052602060002090601f016020900481019282620001ff57600085556200024a565b82601f106200021a57805160ff19168380011785556200024a565b828001600101855582156200024a579182015b828111156200024a5782518255916020019190600101906200022d565b50620002589291506200025c565b5090565b5b808211156200025857600081556001016200025d565b600181811c908216806200028857607f821691505b602082108103620002a957634e487b7160e01b600052602260045260246000fd5b50919050565b6108d280620002bf6000396000f3fe608060405234801561001057600080fd5b506004361061007d5760003560e01c806370a082311161005b57806370a08231146100dd57806393ab6e56146100f057806395d89b4114610103578063d85d3d271461010b57600080fd5b806306fdde031461008257806318160ddd146100a05780636352211e146100b2575b600080fd5b61008a610120565b6040516100979190610660565b60405180910390f35b6004545b604051908152602001610097565b6100c56100c0366004610693565b6101b2565b6040516001600160a01b039091168152602001610097565b6100a46100eb3660046106ac565b6101f6565b61008a6100fe366004610693565b61023a565b61008a6102e6565b61011e6101193660046106f2565b6102f5565b005b60606000805461012f906107a3565b80601f016020809104026020016040519081016040528092919081815260200182805461015b906107a3565b80156101a85780601f1061017d576101008083540402835291602001916101a8565b820191906000526020600020905b81548152906001019060200180831161018b57829003601f168201915b5050505050905090565b6000818152600260205260408120546001600160a01b0316806101f05760405162461bcd60e51b81526004016101e7906107dd565b60405180910390fd5b92915050565b60006001600160a01b03821661021e5760405162461bcd60e51b81526004016101e7906107dd565b506001600160a01b031660009081526003602052604090205490565b6008818154811061024a57600080fd5b906000526020600020016000915090508054610265906107a3565b80601f0160208091040260200160405190810160405280929190818152602001828054610291906107a3565b80156102de5780601f106102b3576101008083540402835291602001916102de565b820191906000526020600020905b8154815290600101906020018083116102c157829003601f168201915b505050505081565b60606001805461012f906107a3565b600981604051610305919061083a565b9081526040519081900360200190205460ff16156103655760405162461bcd60e51b815260206004820152601960248201527f4b727970746f4269726420416c7265616479204578697374730000000000000060448201526064016101e7565b6008805460018101825560009190915281516103a8917ff3f7a9fe364faab93b216da50a3214154f22a0a2b415b23a84c8169e8b636ee301906020840190610597565b506008546000906103bb9060019061086c565b90506103c733826103fd565b60016009836040516103d9919061083a565b908152604051908190036020019020805491151560ff199092169190911790555050565b610407828261043d565b600480546001810182556000919091527f8a35acfbc15ff81a39ae7d344fd709f28e8600b4aa8c65c6b64bfe7fe36bd19b015550565b6001600160a01b03821661049d5760405162461bcd60e51b815260206004820152602160248201527f4552433732313a20546865204f776e65722041646472657373206973203078306044820152601760f91b60648201526084016101e7565b6000818152600260205260409020546001600160a01b0316156105145760405162461bcd60e51b815260206004820152602960248201527f4552433732313a2054686520746f6b656e2068617320616c7265616479206265604482015268195b881b5a5b9d195960ba1b60648201526084016101e7565b600081815260026020908152604080832080546001600160a01b0319166001600160a01b03871690811790915583526003909152812080549161055683610883565b909155505060405181906001600160a01b038416906000907fddf252ad1be2c89b69c2b068fc378daa952ba7f163c4a11628f55a4df523b3ef908290a45050565b8280546105a3906107a3565b90600052602060002090601f0160209004810192826105c5576000855561060b565b82601f106105de57805160ff191683800117855561060b565b8280016001018555821561060b579182015b8281111561060b5782518255916020019190600101906105f0565b5061061792915061061b565b5090565b5b80821115610617576000815560010161061c565b60005b8381101561064b578181015183820152602001610633565b8381111561065a576000848401525b50505050565b602081526000825180602084015261067f816040850160208701610630565b601f01601f19169190910160400192915050565b6000602082840312156106a557600080fd5b5035919050565b6000602082840312156106be57600080fd5b81356001600160a01b03811681146106d557600080fd5b9392505050565b634e487b7160e01b600052604160045260246000fd5b60006020828403121561070457600080fd5b813567ffffffffffffffff8082111561071c57600080fd5b818401915084601f83011261073057600080fd5b813581811115610742576107426106dc565b604051601f8201601f19908116603f0116810190838211818310171561076a5761076a6106dc565b8160405282815287602084870101111561078357600080fd5b826020860160208301376000928101602001929092525095945050505050565b600181811c908216806107b757607f821691505b6020821081036107d757634e487b7160e01b600052602260045260246000fd5b50919050565b60208082526037908201527f4552433732313a20546865204f776e657220416464726573732069732030783060408201527f2e204f776e657220646f6573206e6f742065786973742e000000000000000000606082015260800190565b6000825161084c818460208701610630565b9190910192915050565b634e487b7160e01b600052601160045260246000fd5b60008282101561087e5761087e610856565b500390565b60006001820161089557610895610856565b506001019056fea2646970667358221220eb575fcd4428f662e59552ae1768bb481d4b94fd26d6d3c7a78bd58302c6ac2964736f6c634300080d0033",
  "immutableReferences": {},
  "source": "// SPDX-License-Identifier: MIT\r\npragma solidity ^0.8.0;\r\n\r\nimport \"./ERC721Connector.sol\";\r\n\r\ncontract KryptoBirdz is Connector {\r\n     \r\n    // Making an array\r\n    string [] public kryptoBirdz;\r\n\r\n    // Error Handeling\r\n    mapping(string => bool) _kryptoBirdExists;\r\n\r\n    function mint(string memory _kryptoBird) public {\r\n        require(_kryptoBirdExists[_kryptoBird] == false, \"KryptoBird Already Exists\");\r\n        \r\n        kryptoBirdz.push(_kryptoBird);\r\n        uint256 _id = kryptoBirdz.length - 1;\r\n        _mint(msg.sender, _id);\r\n\r\n        _kryptoBirdExists[_kryptoBird] =  true;\r\n    }\r\n    \r\n    string private name = \"KryptoBirdz\";\r\n    string private symbol = \"KBirdz\";\r\n    \r\n    constructor() Connector(name, symbol) {}    \r\n}\r\n\r\n\r\n\r\n\r\n\r\n\r\n\r\n\r\n\r\n\r\n\r\n\r\n\r\n\r\n\r\n\r\n\r\n\r\n\r\n\r\n\r\n\r\n\r\n\r\n\r\n\r\n\r\n\r\n\r\n\r\n\r\n\r\n\r\n\r\n// // array to store data\r\n//     string[] public kryptoBirdz;\r\n    \r\n//     // Error Handeling\r\n//     mapping(string => bool) _kryptoBirdzExists;\r\n\r\n//     function mint(string memory _kryptoBird) public {\r\n//         require(_kryptoBirdzExists[_kryptoBird] == false, \"KryptoBirdz: The kryptoBirdz already exists.\");\r\n        \r\n//         kryptoBirdz.push(_kryptoBird);\r\n//         uint _id = kryptoBirdz.length - 1;\r\n\r\n//         _mint(msg.sender, _id);\r\n\r\n//         _kryptoBirdzExists[_kryptoBird] = true;\r\n//     }\r\n\r\n//     string private name = 'KryptoBird';\r\n//     string private symbol = 'KBIRDZ';\r\n    \r\n//     constructor() Connector(name, symbol){}",
  "sourcePath": "D:\\Projects\\Block Chain\\Block-Chain-Learning\\nft-marketplace\\src\\contracts\\KryptoBirdz.sol",
  "compiler": {
    "name": "solc",
    "version": "0.8.13+commit.abaa5c0e.Emscripten.clang"
  },
  "schemaVersion": "3.4.6",
  "updatedAt": "2022-04-07T01:04:38.974Z",
  "networkType": "ethereum",
  "devdoc": {
    "kind": "dev",
    "methods": {},
    "version": 1
  },
  "userdoc": {
    "kind": "user",
    "methods": {},
    "version": 1
  }
}