{
  "contractName": "KryptoBirdz",
  "abi": [
    {
      "inputs": [],
      "stateMutability": "nonpayable",
      "type": "constructor"
    },
    {
      "anonymous": false,
      "inputs": [
        {
          "indexed": true,
          "internalType": "address",
          "name": "to",
          "type": "address"
        },
        {
          "indexed": true,
          "internalType": "address",
          "name": "from",
          "type": "address"
        },
        {
          "indexed": true,
          "internalType": "uint256",
          "name": "_tokenId",
          "type": "uint256"
        }
      ],
      "name": "Transfer",
      "type": "event"
    },
    {
      "inputs": [
        {
          "internalType": "address",
          "name": "_owner",
          "type": "address"
        }
      ],
      "name": "balanceOf",
      "outputs": [
        {
          "internalType": "uint256",
          "name": "",
          "type": "uint256"
        }
      ],
      "stateMutability": "view",
      "type": "function",
      "constant": true
    },
    {
      "inputs": [
        {
          "internalType": "uint256",
          "name": "",
          "type": "uint256"
        }
      ],
      "name": "kryptoBirdz",
      "outputs": [
        {
          "internalType": "string",
          "name": "",
          "type": "string"
        }
      ],
      "stateMutability": "view",
      "type": "function",
      "constant": true
    },
    {
      "inputs": [],
      "name": "name",
      "outputs": [
        {
          "internalType": "string",
          "name": "",
          "type": "string"
        }
      ],
      "stateMutability": "view",
      "type": "function",
      "constant": true
    },
    {
      "inputs": [
        {
          "internalType": "uint256",
          "name": "_owner",
          "type": "uint256"
        }
      ],
      "name": "ownerOf",
      "outputs": [
        {
          "internalType": "address",
          "name": "",
          "type": "address"
        }
      ],
      "stateMutability": "view",
      "type": "function",
      "constant": true
    },
    {
      "inputs": [],
      "name": "symbol",
      "outputs": [
        {
          "internalType": "string",
          "name": "",
          "type": "string"
        }
      ],
      "stateMutability": "view",
      "type": "function",
      "constant": true
    },
    {
      "inputs": [
        {
          "internalType": "string",
          "name": "_kryptoBird",
          "type": "string"
        }
      ],
      "name": "mint",
      "outputs": [],
      "stateMutability": "nonpayable",
      "type": "function"
    }
  ],
  "bytecode": "0x60c0604052600b60808190526a25b93cb83a37a134b9323d60a91b60a09081526200002e9160069190620001cd565b506040805180820190915260068082526525a134b9323d60d11b60209092019182526200005e91600791620001cd565b503480156200006c57600080fd5b50600680546200007c9062000273565b80601f0160208091040260200160405190810160405280929190818152602001828054620000aa9062000273565b8015620000fb5780601f10620000cf57610100808354040283529160200191620000fb565b820191906000526020600020905b815481529060010190602001808311620000dd57829003601f168201915b5050505050600780546200010f9062000273565b80601f01602080910402602001604051908101604052809291908181526020018280546200013d9062000273565b80156200018e5780601f1062000162576101008083540402835291602001916200018e565b820191906000526020600020905b8154815290600101906020018083116200017057829003601f168201915b50508451859350849250620001ac91506000906020850190620001cd565b508051620001c2906001906020840190620001cd565b5050505050620002af565b828054620001db9062000273565b90600052602060002090601f016020900481019282620001ff57600085556200024a565b82601f106200021a57805160ff19168380011785556200024a565b828001600101855582156200024a579182015b828111156200024a5782518255916020019190600101906200022d565b50620002589291506200025c565b5090565b5b808211156200025857600081556001016200025d565b600181811c908216806200028857607f821691505b602082108103620002a957634e487b7160e01b600052602260045260246000fd5b50919050565b6107f880620002bf6000396000f3fe608060405234801561001057600080fd5b50600436106100625760003560e01c806306fdde03146100675780636352211e1461008557806370a08231146100c657806393ab6e56146100e757806395d89b41146100fa578063d85d3d2714610102575b600080fd5b61006f610117565b60405161007c91906105a2565b60405180910390f35b6100ae6100933660046105d5565b6000908152600260205260409020546001600160a01b031690565b6040516001600160a01b03909116815260200161007c565b6100d96100d43660046105ee565b6101a9565b60405190815260200161007c565b61006f6100f53660046105d5565b6101f6565b61006f6102a2565b610115610110366004610634565b6102b1565b005b606060008054610126906106e5565b80601f0160208091040260200160405190810160405280929190818152602001828054610152906106e5565b801561019f5780601f106101745761010080835404028352916020019161019f565b820191906000526020600020905b81548152906001019060200180831161018257829003601f168201915b5050505050905090565b60006001600160a01b0382166101da5760405162461bcd60e51b81526004016101d19061071f565b60405180910390fd5b506001600160a01b031660009081526003602052604090205490565b6004818154811061020657600080fd5b906000526020600020016000915090508054610221906106e5565b80601f016020809104026020016040519081016040528092919081815260200182805461024d906106e5565b801561029a5780601f1061026f5761010080835404028352916020019161029a565b820191906000526020600020905b81548152906001019060200180831161027d57829003601f168201915b505050505081565b606060018054610126906106e5565b6005816040516102c19190610760565b9081526040519081900360200190205460ff16156103215760405162461bcd60e51b815260206004820152601960248201527f4b727970746f4269726420416c7265616479204578697374730000000000000060448201526064016101d1565b600480546001810182556000919091528151610364917f8a35acfbc15ff81a39ae7d344fd709f28e8600b4aa8c65c6b64bfe7fe36bd19b019060208401906104d9565b5060045460009061037790600190610792565b905061038333826103b9565b60016005836040516103959190610760565b908152604051908190036020019020805491151560ff199092169190911790555050565b6001600160a01b0382166103df5760405162461bcd60e51b81526004016101d19061071f565b6000818152600260205260409020546001600160a01b0316156104565760405162461bcd60e51b815260206004820152602960248201527f4552433732313a2054686520746f6b656e2068617320616c7265616479206265604482015268195b881b5a5b9d195960ba1b60648201526084016101d1565b600081815260026020908152604080832080546001600160a01b0319166001600160a01b038716908117909155835260039091528120805491610498836107a9565b909155505060405181906001600160a01b038416906000907fddf252ad1be2c89b69c2b068fc378daa952ba7f163c4a11628f55a4df523b3ef908290a45050565b8280546104e5906106e5565b90600052602060002090601f016020900481019282610507576000855561054d565b82601f1061052057805160ff191683800117855561054d565b8280016001018555821561054d579182015b8281111561054d578251825591602001919060010190610532565b5061055992915061055d565b5090565b5b80821115610559576000815560010161055e565b60005b8381101561058d578181015183820152602001610575565b8381111561059c576000848401525b50505050565b60208152600082518060208401526105c1816040850160208701610572565b601f01601f19169190910160400192915050565b6000602082840312156105e757600080fd5b5035919050565b60006020828403121561060057600080fd5b81356001600160a01b038116811461061757600080fd5b9392505050565b634e487b7160e01b600052604160045260246000fd5b60006020828403121561064657600080fd5b813567ffffffffffffffff8082111561065e57600080fd5b818401915084601f83011261067257600080fd5b8135818111156106845761068461061e565b604051601f8201601f19908116603f011681019083821181831017156106ac576106ac61061e565b816040528281528760208487010111156106c557600080fd5b826020860160208301376000928101602001929092525095945050505050565b600181811c908216806106f957607f821691505b60208210810361071957634e487b7160e01b600052602260045260246000fd5b50919050565b60208082526021908201527f4552433732313a20546865204f776e65722041646472657373206973203078306040820152601760f91b606082015260800190565b60008251610772818460208701610572565b9190910192915050565b634e487b7160e01b600052601160045260246000fd5b6000828210156107a4576107a461077c565b500390565b6000600182016107bb576107bb61077c565b506001019056fea264697066735822122098da60237b68a1d3bd23eaf1b68275fc9e2b718200def33029e53175ce1499db64736f6c634300080d0033",
  "immutableReferences": {},
  "source": "// SPDX-License-Identifier: MIT\r\npragma solidity ^0.8.7;\r\n\r\nimport \"./ERC721Connector.sol\";\r\n\r\ncontract KryptoBirdz is Connector {\r\n     \r\n    // Making an array\r\n    string [] public kryptoBirdz;\r\n\r\n    // Error Handeling\r\n    mapping(string => bool) _kryptoBirdExists;\r\n\r\n    function mint(string memory _kryptoBird) public {\r\n        require(_kryptoBirdExists[_kryptoBird] == false, \"KryptoBird Already Exists\");\r\n        \r\n        kryptoBirdz.push(_kryptoBird);\r\n        uint _id = kryptoBirdz.length - 1;\r\n        _mint(msg.sender, _id);\r\n\r\n        _kryptoBirdExists[_kryptoBird] =  true;\r\n    }\r\n    \r\n    string private name = \"KryptoBirdz\";\r\n    string private symbol = \"KBirdz\";\r\n    \r\n    constructor() Connector(name, symbol) {}\r\n\r\n    \r\n}\r\n\r\n\r\n\r\n\r\n\r\n\r\n\r\n\r\n\r\n\r\n\r\n\r\n\r\n\r\n\r\n\r\n\r\n\r\n\r\n\r\n\r\n\r\n\r\n\r\n\r\n\r\n\r\n\r\n\r\n\r\n\r\n\r\n\r\n\r\n// // array to store data\r\n//     string[] public kryptoBirdz;\r\n    \r\n//     // Error Handeling\r\n//     mapping(string => bool) _kryptoBirdzExists;\r\n\r\n//     function mint(string memory _kryptoBird) public {\r\n//         require(_kryptoBirdzExists[_kryptoBird] == false, \"KryptoBirdz: The kryptoBirdz already exists.\");\r\n        \r\n//         kryptoBirdz.push(_kryptoBird);\r\n//         uint _id = kryptoBirdz.length - 1;\r\n\r\n//         _mint(msg.sender, _id);\r\n\r\n//         _kryptoBirdzExists[_kryptoBird] = true;\r\n//     }\r\n\r\n//     string private name = 'KryptoBird';\r\n//     string private symbol = 'KBIRDZ';\r\n    \r\n//     constructor() Connector(name, symbol){}",
  "sourcePath": "D:\\Projects\\Block Chain\\Block-Chain-Learning\\nft-marketplace\\src\\contracts\\KryptoBirdz.sol",
  "compiler": {
    "name": "solc",
    "version": "0.8.13+commit.abaa5c0e.Emscripten.clang"
  },
  "schemaVersion": "3.4.6",
  "updatedAt": "2022-04-06T02:24:48.870Z",
  "networkType": "ethereum",
  "devdoc": {
    "kind": "dev",
    "methods": {},
    "version": 1
  },
  "userdoc": {
    "kind": "user",
    "methods": {},
    "version": 1
  }
}